:040000005EEF00F0BF
:100018005980D8CF01F0E8CF02F0E0CF03F00E010D
:1000280033AB19EF00F01BEF00F044EF00F00001D4
:10003800AE4BAF2B090ED46E830ED36EAE51AF11FB
:10004800D8B429EF00F02BEF00F037EF00F0AF51F4
:1000580007E1050EAE5DD8B034EF00F036EF00F0E2
:1000680037EF00F08096060EAE19AF11D8A43FEF17
:1000780000F041EF00F042EF00F080860E01339B64
:1000880035A149EF00F04BEF00F04DEF00F080860E
:10009800359135A352EF00F054EF00F056EF00F021
:1000A8008096359303C0E0FF02C0E8FF01C0D8FF87
:0800B80059901000E6EF0FF073
:100E000000566F6C74616765203D2025642E253087
:100E1000326400483A2530326420443A2530336445
:100E200000593A2564204E6F726D616C00593A2565
:100E300064204C65617000001BC016F01CC017F0E8
:100E400070EC0DF016C03DF017C03EF0000E0D6EB8
:100E5000050E0C6E010E1D24046E000E1E20056E84
:100E6000000E076E0D0E066EAFEC0FF004C00AF018
:100E700005C00BF0E8EC0DF00AC01FF00BC020F02D
:100E8000000E146E640E136E1BC011F01CC012F025
:100E90008BEC0EF011501F24216E12502020226E78
:100EA000000E146E640E136E1BC011F01CC012F005
:100EB0008BEC0EF0D89012321132D89012321132DF
:100EC00011502124236E12502220246E000E0D6E2C
:100ED000640E0C6E1BC00AF01CC00BF0E8EC0DF0A9
:100EE000D8900B320A32D8900B320A320A5023249F
:100EF000256E0B502420266E000E0D6E640E0C6EB7
:100F00001BC00AF01CC00BF0E8EC0DF0D8900A36BC
:100F10000B360A50255C276E0B502658286E010EA2
:100F20002724376E000E2820386E37C011F038C0E5
:100F300012F0000E146E070E136E8BEC0EF011C043
:100F400029F012C02AF0060E2924116E000E2A2064
:100F5000126E000E146E070E136E8BEC0EF011C0A5
:100F60002BF012C02CF01E0E2B24116E000E2C2024
:100F7000126E000E146E070E136E8BEC0EF011C085
:100F80002DF012C02EF02D501F083F6E2E50D8A00D
:100F9000E82A0008406E030E1D181E10D8A4D3EFD7
:100FA00007F0D5EF07F0FAEF07F03D503E10D8A458
:100FB000DCEF07F0DEEF07F0E4EF07F0000E3A6E2B
:100FC0001C0E396EE8EF07F0000E3A6E1D0E396EFA
:100FD0001F0E39242F6E000E3A20306E3F502F2402
:100FE000316E40503020326E31C01BF032C01CF0E8
:100FF00027EF08F00A0E1D181E10D8A402EF08F003
:1010000004EF08F027EF08F03D503E10D8A40BEF96
:1010100008F00DEF08F013EF08F0000E3C6E1C0E08
:101020003B6E17EF08F0000E3C6E1D0E3B6EF50E8A
:101030003B24336E000E3C20346E3F503324356E1B
:1010400040503420366E35C01BF036C01CF0120004
:101050002450D96EDA6ADFCFF6FF0E0EF76E000E5F
:10106000F86E0800F550250AD8A439EF08F03BEFD8
:1010700008F0D5EF08F02450D96EDA6ADF2A000EA6
:10108000556E000E546E54C058F056685768000EE6
:101090002C6E71EF08F058822450D96EDA6ADF2A7C
:1010A00071EF08F0010E2C6E71EF08F02450D96E2C
:1010B000DA6ADFCFF6FF0E0EF76E000EF86E08004C
:1010C000F550266E276A2750000AD8B46AEF08F058
:1010D00052EF08F02650300AD8B44BEF08F052EF28
:1010E00008F02C50D8B477EF08F079EF08F056EFFD
:1010F00008F024C00AF025C00BF09BEC0BF00AC0EE
:1011000054F00BC055F055BE8AEF08F088EF08F098
:101110008FEF08F05880546C551ED8B0552A2450D3
:10112000D96EDA6ADF502D6E2DC0F6FF0E0EF76E07
:10113000000EF86E0800F550640AD8B4A2EF08F06B
:10114000A4EF08F0B4EF08F02DC0F6FF0E0EF76E16
:10115000000EF86E0800F550690AD8A4B2EF08F046
:10116000B4EF08F0CFEF08F02550D96EDA6A020E1E
:10117000DF26DF5CD96EDA6ADECF28F0DECF29F019
:101180002450D96EDA6A2D28DF6E23C018F028C0EB
:1011900019F029C01AF0E9EC08F0E8EF08F0245043
:1011A000D96EDA6ADF2AE8EF08F02450D96EDA6ADD
:1011B000DFCFF6FF0E0EF76E000EF86E0800F5504A
:1011C000046E056A23C006F049EC0CF0CFEF08F07E
:1011D0001200010E1D6E1ABEF0EF08F0F3EF08F0DA
:1011E000010EF4EF08F0000E206E54C01EF055C042
:1011F0001FF02050D8B4FFEF08F001EF09F018EF0E
:1012000009F01E06D8A01F062050D8A40AEF09F046
:101210000CEF09F012EF09F0000E1C6E2B0E1B6E86
:1012200016EF09F0000E1C6E2D0E1B6E1BC020F079
:10123000000E226E1F0E216E000E0001AD6F4EEFEC
:1012400009F02106D8A0220621508E0FD96EDA6A45
:1012500019C004F01AC005F0000E076E0A0E066EE3
:1012600043EC0BF004C00AF005C00BF051EC0FF09A
:101270000A50300FDF6E000E1D6E1E06D8A01F062E
:1012800019C004F01AC005F0000E076E0A0E066EB3
:10129000E1EC0AF004C019F005C01AF022BE59EFC3
:1012A00009F0225008E12104D8A059EF09F05BEFC2
:1012B00009F080EF09F019501A10D8A462EF09F074
:1012C00064EF09F021EF09F01D50D8A46AEF09F08E
:1012D0006CEF09F021EF09F01FBE77EF09F01F5006
:1012E00008E11E04D8A077EF09F079EF09F080EF4C
:1012F00009F058B27EEF09F080EF09F021EF09F014
:101300002050D8B486EF09F088EF09F091EF09F08A
:101310002106D8A0220621508E0FD96EDA6A20C08D
:10132000DFFF18C011F021508E0F126E1EC013F097
:101330001FC014F0E8EC0CF01200000E0001896FE1
:10134000000E886F000E8D6F0B0E8C6F070E8B6F6B
:10135000E80E8A6F000E876F000E866FF7EC0FF0B5
:101360008AC016F08BC017F070EC0DF016C080F03C
:1013700017C081F0AEC004F0AFC005F07DEC0AF0FC
:10138000010E1AEC0FF0600E456EAEC046F0AFC015
:1013900047F08CC048F08DC049F08AC04AF08BC03D
:1013A0004BF080C04CF081C04DF09EEC0CF0AEC014
:1013B00041F0AFC042F08CC043F08DC044F08AC011
:1013C00045F08BC046F0820E476E840E486E22ECCC
:1013D0000EF08CC004F08DC005F082C006F083C012
:1013E00007F084C008F085C009F0AE0E0A6E860EC4
:1013F0000B6EF2EC0BF0AE0E046E8C0E056E8A0EC8
:10140000066E80C007F081C008F0880E096E17ECE8
:101410000AF0AE0E046E8CC005F08DC006F0880E8A
:10142000076EADEC0DF0B0EF09F05EEF00F0045088
:10143000D96EDA6A180EDE18DE10D8A422EF0AF090
:1014400024EF0AF02FEF0AF00450D96EDA6ADE6A50
:10145000DD6A0550D96EDA6ADE2A000EDD220750F9
:101460000810D8A436EF0AF038EF0AF058EF0AF067
:101470000550D96EDA6A6E0EDE5C010EDE58D8A019
:1014800044EF0AF046EF0AF058EF0AF00550D96E23
:10149000DA6A010EDE6E000EDD6E0650D96EDA6A73
:1014A000DE2A000EDD220950D96EDA6ADE6ADD6AB4
:1014B00007040810D8A45FEF0AF061EF0AF07CEF90
:1014C0000AF00550D96EDA6A6F0EDE5C010EDE5846
:1014D000D8A06DEF0AF06FEF0AF07CEF0AF005502C
:1014E000D96EDA6A010EDE6E000EDD6E0650D96E20
:1014F000DA6ADE2A000EDD22120004A082EF0AF072
:1015000084EF0AF087EF0AF07F8088EF0AF07F907F
:1015100004A28DEF0AF08FEF0AF092EF0AF07F82BB
:1015200093EF0AF07F9204A498EF0AF09AEF0AF082
:101530009DEF0AF079849EEF0AF0799404A6A3EF58
:101540000AF0A5EF0AF0A8EF0AF07E8CA9EF0AF0E6
:101550007E9C04A8AEEF0AF0B0EF0AF0B3EF0AF0F9
:101560007988B4EF0AF0799804AAB9EF0AF0BBEFD2
:101570000AF0BEEF0AF0798ABFEF0AF0799A04AC5C
:10158000C4EF0AF0C6EF0AF0C9EF0AF07E80CAEF96
:101590000AF07E9004AECFEF0AF0D1EF0AF0D4EF5C
:1015A0000AF07A80D5EF0AF07A9005A0DAEF0AF017
:1015B000DCEF0AF0DFEF0AF07A82E0EF0AF07A92CD
:1015C0001200000E096E07BEEAEF0AF0E8EF0AF01B
:1015D000F0EF0AF0066C071ED8B0072A010E096E5C
:1015E00005BEF7EF0AF0F5EF0AF0FDEF0AF0046C24
:1015F000051ED8B0052A010E091A000E0B6E000E4A
:101600000A6E06500710D8B408EF0BF00AEF0BF083
:1016100032EF0BF0010E086E12EF0BF0D890063689
:101620000736082A07AE17EF0BF019EF0BF00EEF95
:101630000BF0D8900A360B360650045C075005585C
:10164000D8A025EF0BF027EF0BF02CEF0BF0065096
:10165000045E0750055A0A80D89007320632082ED9
:1016600019EF0BF00950D8B438EF0BF03AEF0BF04C
:101670003EEF0BF00A6C0B1ED8B00B2A0AC004F028
:101680000BC005F01200000E096E05BE4CEF0BF00A
:101690004AEF0BF052EF0BF0046C051ED8B0052A90
:1016A000010E096E07BE59EF0BF057EF0BF05DEF1F
:1016B0000BF0066C071ED8B0072A06500710D8B4E6
:1016C00064EF0BF066EF0BF08AEF0BF0010E086E83
:1016D0006EEF0BF0D89006360736082A07AE73EF88
:1016E0000BF075EF0BF06AEF0BF00650045C07503F
:1016F0000558D8A07EEF0BF080EF0BF084EF0BF0D5
:101700000650045E0750055AD89007320632082E5C
:1017100075EF0BF00950D8B490EF0BF092EF0BF08F
:1017200096EF0BF0046C051ED8B0052A04C004F037
:1017300005C005F01200000E0E6E000E0D6E0A5070
:10174000D96EDA6ADFCFF6FF0E0EF76E000EF86E76
:101750000800F5502A0AD8A4B0EF0BF0B2EF0BF056
:10176000D8EF0BF00A50D96EDA6ADF2A0B50D96E27
:10177000DA6A020EDF26DF5CD96EDA6ADECF0DF0A0
:10178000DECF0EF0EDEF0BF00DC004F00EC005F053
:10179000000E076E0A0E066EAFEC0FF00C5004241C
:1017A0000D6E000E05200E6E0A50D96EDA6ADF2A21
:1017B0000A50D96EDA6ADFCFF6FF0E0EF76E000E12
:1017C000F86E0800F550D00F0C6E090E0C64EBEFAC
:1017D0000BF0EDEF0BF0C4EF0BF00DC00AF00EC0F4
:1017E0000BF012000650041807E107500518D8A4A2
:1017F000FCEF0BF0FEEF0BF016EF0CF00A50D96E79
:10180000DA6A020EDE18DE10D8A409EF0CF00BEF36
:101810000CF016EF0CF00A50D96EDA6ADE2A000ED0
:10182000DD220B50D96EDA6ADE6ADD6A08500418D0
:1018300007E109500518D8A420EF0CF022EF0CF0B6
:1018400048EF0CF00A50D96EDA6A020EDE18DE108C
:10185000D8A42DEF0CF02FEF0CF048EF0CF00B504C
:10186000D96EDA6ADE50DE10D8A439EF0CF03BEF07
:101870000CF048EF0CF00A50D96EDA6ADE06000E62
:10188000DD5A0B50D96EDA6A010EDE6E000EDD6E87
:1018900012000650D8B44FEF0CF051EF0CF059EF96
:1018A0000CF00650D8A457EF0CF059EF0CF05EEF97
:1018B0000CF0045022EC10F09DEF0CF00650D96EA5
:1018C000DA6A0A0ED926DE50DE10D8B46AEF0CF0C0
:1018D0006CEF0CF085EF0CF00650D96EDA6A0A0E48
:1018E000D9260650E16EE26A030EE126DE50E65C80
:1018F000E650800A0B6EDE50800A0B58D8B083EF9A
:101900000CF085EF0CF09DEF0CF00650D96EDA6A02
:10191000030ED926DF50076E0650D96EDA6ADF5003
:101920000724D96EDA6A04C0DFFF0650D96EDA6A7E
:10193000030ED926DE2A000EDD221200010E1AEC5B
:101940000FF045C032F0130E336E46C034F047C07E
:1019500035F048C036F049C037F037EC0FF045C0DD
:1019600009F06BEC0FF0020E1AEC0FF04C044D1066
:10197000D8A4BDEF0CF0BFEF0CF0CFEF0CF045C0DA
:1019800032F02D0E336E4AC034F04BC035F037ECD8
:101990000FF045C009F06BEC0FF0DBEF0CF045C029
:1019A00032F0210E336E4AC034F04BC035F037ECC4
:1019B0000FF0C9EF0CF0110E4F6E3C0E4E6ECB0EB9
:1019C000E82EFED74E2EFCD74F2EFAD7000012007D
:1019D00058A0EDEF0CF0EFEF0CF0F5EF0CF012C0AB
:1019E0000CF011C00DF0DEEC0EF014BEFCEF0CF0AC
:1019F000FAEF0CF000EF0DF0000E146E000E136EF7
:101A0000000E176E000E166E10EF0DF0000E056E34
:101A1000200E046E11C006F049EC0CF0164A172A8D
:101A20001350165C1750800A156E1450800A155812
:101A3000D8A01DEF0DF01FEF0DF006EF0DF058B020
:101A400024EF0DF026EF0DF02CEF0DF012C00CF08E
:101A500011C00DF0DEEC0EF01200839C8394829690
:101A60008294859685927B9C7B947A987A9A7A9CCC
:101A70007A9E030E57EC0EF0D00EE82EFED7000E25
:101A8000056E280EFCEC0EF0D00EE82EFED7000EF0
:101A9000056E280EFCEC0EF0C50EE82EFED70000F9
:101AA000000E056E0C0EFCEC0EF0C50EE82EFED7F7
:101AB0000000000E056E010EFCEC0EF0200E096E0B
:101AC000CA0EE82EFED7092EFCD7000E056E060EB4
:101AD000FCEC0EF0000E056E0F0EFCEC0EF012008A
:101AE000010E1A6E030E1614186E000E1714196EDE
:101AF00018501910D8A47FEF0DF081EF0DF094EF7E
:101B00000DF016C011F017C012F0000E146E640E26
:101B1000136E8BEC0EF011501210D8A492EF0DF052
:101B200094EF0DF0A9EF0DF016C011F017C012F0F0
:101B3000010E146E900E136E8BEC0EF011501210FD
:101B4000D8B4A5EF0DF0A7EF0DF0A9EF0DF0000E42
:101B50001A6E1AC016F0176A120080B6B2EF0DF0B6
:101B6000B4EF0DF0E7EF0DF00B0E05180610D8A43A
:101B7000BCEF0DF0BEEF0DF0E7EF0DF00450D96EA5
:101B8000DA6A010EDB5009E1060EDE5CD8A0CBEF6D
:101B90000DF0CDEF0DF0E7EF0DF00750D96EDA6ADA
:101BA000DE50DE10D8A4D7EF0DF0D9EF0DF0E7EF3F
:101BB0000DF00450D96EDA6A080EDE6E000EDD6E8E
:101BC0000750D96EDA6A010EDE6E000EDD6E12006D
:101BD000000E0F6E000E0E6E0C500D10D8B4F3EF09
:101BE0000DF0F5EF0DF01DEF0EF0010E106EFDEF94
:101BF0000DF0D8900C360D36102A0DAE02EF0EF017
:101C000004EF0EF0F9EF0DF0D8900E360F360C50B1
:101C10000A5C0D500B58D8A010EF0EF012EF0EF02A
:101C200017EF0EF00C500A5E0D500B5A0E80D89034
:101C30000D320C32102E04EF0EF00EC00AF00FC061
:101C40000BF0120043044410D8A429EF0EF02BEF40
:101C50000EF056EF0EF041504210D8A432EF0EF0C5
:101C600034EF0EF056EF0EF045C01BF046C01CF0EE
:101C7000000E1E6E030E1D6E1CEC07F04750D96E51
:101C8000DA6A1BC0DEFF1CC0DDFF45C01BF046C08A
:101C90001CF0000E1E6E0A0E1D6E1CEC07F0485064
:101CA000D96EDA6A1BC0DEFF1CC0DDFF1200046EB5
:101CB00004A05DEF0EF05FEF0EF062EF0EF07A869B
:101CC00063EF0EF07A9604A268EF0EF06AEF0EF062
:101CD0006DEF0EF07A846EEF0EF07A9404A473EF39
:101CE0000EF075EF0EF078EF0EF07D8679EF0EF0C6
:101CF0007D9604A67EEF0EF080EF0EF083EF0EF0DF
:101D00007D8284EF0EF07D921BEC10F01A0EE82E0F
:101D1000FED700D0120013501410D8B492EF0EF07A
:101D200094EF0EF0B8EF0EF0010E156E9CEF0EF072
:101D3000D89013361436152A14AEA1EF0EF0A3EF87
:101D40000EF098EF0EF01350115C14501258D8A0FA
:101D5000ACEF0EF0AEEF0EF0B2EF0EF01350115EDE
:101D60001450125AD89014321332152EA3EF0EF0DD
:101D700011C011F012C012F012002FC031F0C9EFE3
:101D80000EF02EC023F0310E246E30C025F028EC6A
:101D900008F031C0F6FF0E0EF76E000EF86E080068
:101DA000F5500009D8A4D7EF0EF0D9EF0EF0C1EF2F
:101DB0000EF0000E2F6E000E2E6E1200000E106E32
:101DC000000E0F6EEDEF0EF00EC004F0056A0DC0B0
:101DD00006F049EC0CF00F4A102A0C500F24D96E73
:101DE000DA6ADF500E6E0E50D8A4F9EF0EF0FBEF5A
:101DF0000EF0E4EF0EF01200086E0504D8A403EF15
:101E00000FF005EF0FF008EF0FF07B8C09EF0FF0EC
:101E10007B9C08380F0B066E065057EC0EF00850EE
:101E20000F0B076E075057EC0EF0A00E00D0E82EF7
:101E3000FDD71200096E0904D8A421EF0FF023EF9B
:101E40000FF028EF0FF0000E056E800EFCEC0EF088
:101E5000020E0918D8A42FEF0FF031EF0FF036EF74
:101E60000FF0000E056EC00EFCEC0EF01200340EEA
:101E7000386E32C039F0000E3D6E000E3C6E000E22
:101E8000446E000E436E390E2E6E33C02FF0380EA6
:101E9000306EBDEC0EF032503C24D96EDA6ADF6A47
:101EA00012000BBE56EF0FF058EF0FF05EEF0FF081
:101EB0000AC00AF00BC00BF06AEF0FF00AC00CF07A
:101EC0000BC00DF00C1E0D1E0C4A0D2A0CC00AF0A2
:101ED0000DC00BF0120076EF0FF0010E056E0950E9
:101EE000D96EDA6ADF50FCEC0EF0092A0950D96E7F
:101EF000DA6ADF50D8A47FEF0FF081EF0FF06DEFBB
:101F00000FF01200D6501F0B4009D66ED688D6505F
:101F1000F00B0809D66ED5880E01298B339B1F9BC9
:101F2000F28AF28CF28E090ED46E830ED36ED58EA9
:101F30001200000E796E000E7A6E7E907E9C000E6E
:101F40007F6E8086000E816E000E826E8690869C6B
:101F5000000E876E889686840E01B4951200045098
:101F60000602F3CF08F0F4CF09F004500702F35053
:101F7000092605500602F350092608C004F009C0DE
:101F800005F01200868E0E01D251F80B0309D26FB4
:101F9000D351F80B0509D36FD083D089D18311ECCD
:101FA00010F00E01D08F1200868E0E01CE51F80B6C
:101FB0000309CE6FCF51F80B0509CF6FCC83CC89C5
:101FC000CD8111EC10F00E01CC8F120000EE8EF0DE
:101FD000220EEE6AE806FDE100EE50F0090EEE6A10
:101FE000E806FDE15990599200019DEF09F004ECDB
:101FF00010F0C2EC0FF0D4EC0FF082EC0FF099EC83
:102000000FF02DEC0DF012000E012B8121912B838E
:1020100021932B852185298B1F9BF28AF28CF28ECE
:102020001200F30E0E01C617C691C751E00B14093A
:10203000C76FC68F12007B840A0EE82EFED700D031
:062040007B941200120067
:020000040030CA
:02000000AAFF55
:020004009FFF5C
:00000001FF
