:040000005EEF00F0BF
:100018005580D8CF01F0E8CF02F0E0CF03F00E0111
:1000280033AB19EF00F01BEF00F044EF00F00001D4
:10003800AE4BAF2B090ED46E830ED36EAE51AF11FB
:10004800D8B429EF00F02BEF00F037EF00F0AF51F4
:1000580007E1050EAE5DD8B034EF00F036EF00F0E2
:1000680037EF00F08096060EAE19AF11D8A43FEF17
:1000780000F041EF00F042EF00F080860E01339B64
:1000880035A149EF00F04BEF00F04DEF00F080860E
:10009800359135A352EF00F054EF00F056EF00F021
:1000A8008096359303C0E0FF02C0E8FF01C0D8FF87
:0800B80055901000E2EF0FF07B
:100E000000483A2530326420443A25303364005992
:100E10003A2564204E6F726D616C00593A2564204A
:100E20004C65617000001BC016F01CC017F06CEC24
:100E30000DF016C03DF017C03EF0000E0D6E050E11
:100E40000C6E010E1D24046E000E1E20056E000E99
:100E5000076E0D0E066EABEC0FF004C00AF005C075
:100E60000BF0E4EC0DF00AC01FF00BC020F0000EF8
:100E7000146E640E136E1BC011F01CC012F087ECD0
:100E80000EF011501F24216E12502020226E000EF1
:100E9000146E640E136E1BC011F01CC012F087ECB0
:100EA0000EF0D89012321132D89012321132115005
:100EB0002124236E12502220246E000E0D6E640E2B
:100EC0000C6E1BC00AF01CC00BF0E4EC0DF0D890C7
:100ED0000B320A32D8900B320A320A502324256E84
:100EE0000B502420266E000E0D6E640E0C6E1BC07F
:100EF0000AF01CC00BF0E4EC0DF0D8900A360B366B
:100F00000A50255C276E0B502658286E010E2724A8
:100F1000376E000E2820386E37C011F038C012F03E
:100F2000000E146E070E136E87EC0EF011C029F040
:100F300012C02AF0060E2924116E000E2A20126E0D
:100F4000000E146E070E136E87EC0EF011C02BF01E
:100F500012C02CF01E0E2B24116E000E2C20126ECF
:100F6000000E146E070E136E87EC0EF011C02DF0FC
:100F700012C02EF02D501F083F6E2E50D8A0E82A28
:100F80000008406E030E1D181E10D8A4CAEF07F00B
:100F9000CCEF07F0F1EF07F03D503E10D8A4D3EFAF
:100FA00007F0D5EF07F0DBEF07F0000E3A6E1C0EEE
:100FB000396EDFEF07F0000E3A6E1D0E396E1F0E10
:100FC00039242F6E000E3A20306E3F502F24316EA0
:100FD00040503020326E31C01BF032C01CF01EEF8A
:100FE00008F00A0E1D181E10D8A4F9EF07F0FBEF49
:100FF00007F01EEF08F03D503E10D8A402EF08F0B5
:1010000004EF08F00AEF08F0000E3C6E1C0E3B6E79
:101010000EEF08F0000E3C6E1D0E3B6EF50E3B24ED
:10102000336E000E3C20346E3F503324356E4050FA
:101030003420366E35C01BF036C01CF01200245030
:10104000D96EDA6ADFCFF6FF0E0EF76E000EF86E7D
:101050000800F550250AD8A430EF08F032EF08F068
:10106000CCEF08F02450D96EDA6ADF2A000E516EF8
:10107000000E506E50C054F052685368000E2C6E33
:1010800068EF08F054822450D96EDA6ADF2A68EFDC
:1010900008F0010E2C6E68EF08F02450D96EDA6A61
:1010A000DFCFF6FF0E0EF76E000EF86E0800F5505B
:1010B000266E276A2750000AD8B461EF08F049EF7E
:1010C00008F02650300AD8B442EF08F049EF08F093
:1010D0002C50D8B46EEF08F070EF08F04DEF08F028
:1010E00024C00AF025C00BF097EC0BF00AC050F0BA
:1010F0000BC051F051BE81EF08F07FEF08F086EF92
:1011000008F05480506C511ED8B0512A2450D96E2A
:10111000DA6ADF502D6E2DC0F6FF0E0EF76E000E50
:10112000F86E0800F550640AD8B499EF08F09BEF08
:1011300008F0ABEF08F02DC0F6FF0E0EF76E000EB4
:10114000F86E0800F550690AD8A4A9EF08F0ABEFD3
:1011500008F0C6EF08F02550D96EDA6A020EDF26D5
:10116000DF5CD96EDA6ADECF28F0DECF29F02450BA
:10117000D96EDA6A2D28DF6E23C018F028C019F066
:1011800029C01AF0E0EC08F0DFEF08F02450D96E27
:10119000DA6ADF2ADFEF08F02450D96EDA6ADFCF8F
:1011A000F6FF0E0EF76E000EF86E0800F550046E96
:1011B000056A23C006F045EC0CF0C6EF08F01200FB
:1011C000010E1D6E1ABEE7EF08F0EAEF08F0010EFF
:1011D000EBEF08F0000E206E50C01EF051C01FF063
:1011E0002050D8B4F6EF08F0F8EF08F00FEF09F050
:1011F0001E06D8A01F062050D8A401EF09F003EF67
:1012000009F009EF09F0000E1C6E2B0E1B6E0DEF9E
:1012100009F0000E1C6E2D0E1B6E1BC020F0000E80
:10122000226E1F0E216E000E0001AD6F45EF09F01A
:101230002106D8A0220621508E0FD96EDA6A19C075
:1012400004F01AC005F0000E076E0A0E066E3FECA1
:101250000BF004C00AF005C00BF04DEC0FF00A5083
:10126000300FDF6E000E1D6E1E06D8A01F0619C0BF
:1012700004F01AC005F0000E076E0A0E066EDDECD3
:101280000AF004C019F005C01AF022BE50EF09F0B0
:10129000225008E12104D8A050EF09F052EF09F0E4
:1012A00077EF09F019501A10D8A459EF09F05BEF45
:1012B00009F018EF09F01D50D8A461EF09F063EFB1
:1012C00009F018EF09F01FBE6EEF09F01F5008E19A
:1012D0001E04D8A06EEF09F070EF09F077EF09F067
:1012E00054B275EF09F077EF09F018EF09F02050CC
:1012F000D8B47DEF09F07FEF09F088EF09F02106FF
:10130000D8A0220621508E0FD96EDA6A20C0DFFFE6
:1013100018C011F021508E0F126E1EC013F01FC0A6
:1013200014F0E4EC0CF01200000E0001896F000EC6
:10133000886F000E8D6F010E8C6F070E8B6FE80E9D
:101340008A6F000E876F000E866FF2EC0FF0000EB2
:101350000001AF6F000EAE6F8AC016F08BC017F0A1
:101360006CEC0DF016C080F017C081F0AEC004F038
:10137000AFC005F079EC0AF0010E16EC0FF0600E2C
:10138000456EAEC046F0AFC047F08CC048F08DC08F
:1013900049F08AC04AF08BC04BF080C04CF081C04D
:1013A0004DF09AEC0CF0AEC041F0AFC042F08CC0F2
:1013B00043F08DC044F08AC045F08BC046F0820EE9
:1013C000476E840E486E1EEC0EF08CC004F08DC08B
:1013D00005F082C006F083C007F084C008F085C025
:1013E00009F0AE0E0A6E860E0B6EEEEC0BF0AE0E32
:1013F000046E8C0E056E8A0E066E80C007F081C0EA
:1014000008F0880E096E13EC0AF0AE0E046E8CC064
:1014100005F08DC006F0880E076EA9EC0DF0ACEF5C
:1014200009F05EEF00F00450D96EDA6A180EDE188B
:10143000DE10D8A41EEF0AF020EF0AF02BEF0AF01E
:101440000450D96EDA6ADE6ADD6A0550D96EDA6A4E
:10145000DE2A000EDD2207500810D8A432EF0AF071
:1014600034EF0AF054EF0AF00550D96EDA6A6E0EC6
:10147000DE5C010EDE58D8A040EF0AF042EF0AF021
:1014800054EF0AF00550D96EDA6A010EDE6E000ED6
:10149000DD6E0650D96EDA6ADE2A000EDD220950B2
:1014A000D96EDA6ADE6ADD6A07040810D8A45BEF39
:1014B0000AF05DEF0AF078EF0AF00550D96EDA6AAB
:1014C0006F0EDE5C010EDE58D8A069EF0AF06BEFFC
:1014D0000AF078EF0AF00550D96EDA6A010EDE6E76
:1014E000000EDD6E0650D96EDA6ADE2A000EDD22AD
:1014F000120004A07EEF0AF080EF0AF083EF0AF0FA
:101500007F8084EF0AF07F9004A289EF0AF08BEFCE
:101510000AF08EEF0AF07F828FEF0AF07F9204A428
:1015200094EF0AF096EF0AF099EF0AF079849AEFB7
:101530000AF0799404A69FEF0AF0A1EF0AF0A4EF55
:101540000AF07E8CA5EF0AF07E9C04A8AAEF0AF0B0
:10155000ACEF0AF0AFEF0AF07988B0EF0AF07998B3
:1015600004AAB5EF0AF0B7EF0AF0BAEF0AF0798AE9
:10157000BBEF0AF0799A04ACC0EF0AF0C2EF0AF0B0
:10158000C5EF0AF07E80C6EF0AF07E9004AECBEF86
:101590000AF0CDEF0AF0D0EF0AF07A80D1EF0AF02E
:1015A0007A9005A0D6EF0AF0D8EF0AF0DBEF0AF048
:1015B0007A82DCEF0AF07A921200000E096E07BE02
:1015C000E6EF0AF0E4EF0AF0ECEF0AF0066C071E13
:1015D000D8B0072A010E096E05BEF3EF0AF0F1EF4D
:1015E0000AF0F9EF0AF0046C051ED8B0052A010EC6
:1015F000091A000E0B6E000E0A6E06500710D8B4C2
:1016000004EF0BF006EF0BF02EEF0BF0010E086E5F
:101610000EEF0BF0D89006360736082A07AE13EF08
:101620000BF015EF0BF00AEF0BF0D8900A360B36E3
:101630000650045C07500558D8A021EF0BF023EFAB
:101640000BF028EF0BF00650045E0750055A0A8095
:10165000D89007320632082E15EF0BF00950D8B497
:1016600034EF0BF036EF0BF03AEF0BF00A6C0B1E79
:10167000D8B00B2A0AC004F00BC005F01200000E0F
:10168000096E05BE48EF0BF046EF0BF04EEF0BF086
:10169000046C051ED8B0052A010E096E07BE55EF71
:1016A0000BF053EF0BF059EF0BF0066C071ED8B0A0
:1016B000072A06500710D8B460EF0BF062EF0BF06A
:1016C00086EF0BF0010E086E6AEF0BF0D89006362D
:1016D0000736082A07AE6FEF0BF071EF0BF066EFDD
:1016E0000BF00650045C07500558D8A07AEF0BF0B9
:1016F0007CEF0BF080EF0BF00650045E0750055AAC
:10170000D89007320632082E71EF0BF00950D8B48A
:101710008CEF0BF08EEF0BF092EF0BF0046C051ECC
:10172000D8B0052A04C004F005C005F01200000E70
:101730000E6E000E0D6E0A50D96EDA6ADFCFF6FF1C
:101740000E0EF76E000EF86E0800F5502A0AD8A4A7
:10175000ACEF0BF0AEEF0BF0D4EF0BF00A50D96EFC
:10176000DA6ADF2A0B50D96EDA6A020EDF26DF5CF6
:10177000D96EDA6ADECF0DF0DECF0EF0E9EF0BF0B6
:101780000DC004F00EC005F0000E076E0A0E066EC6
:10179000ABEC0FF00C5004240D6E000E05200E6E05
:1017A0000A50D96EDA6ADF2A0A50D96EDA6ADFCFB8
:1017B000F6FF0E0EF76E000EF86E0800F550D00F13
:1017C0000C6E090E0C64E7EF0BF0E9EF0BF0C0EFC5
:1017D0000BF00DC00AF00EC00BF0120006500418FA
:1017E00007E107500518D8A4F8EF0BF0FAEF0BF05B
:1017F00012EF0CF00A50D96EDA6A020EDE18DE1013
:10180000D8A405EF0CF007EF0CF012EF0CF00A5023
:10181000D96EDA6ADE2A000EDD220B50D96EDA6A42
:10182000DE6ADD6A0850041807E109500518D8A4DB
:101830001CEF0CF01EEF0CF044EF0CF00A50D96EC8
:10184000DA6A020EDE18DE10D8A429EF0CF02BEFB6
:101850000CF044EF0CF00B50D96EDA6ADE50DE105B
:10186000D8A435EF0CF037EF0CF044EF0CF00A5031
:10187000D96EDA6ADE06000EDD5A0B50D96EDA6ACE
:10188000010EDE6E000EDD6E12000650D8B44BEF76
:101890000CF04DEF0CF055EF0CF00650D8A453EFC0
:1018A0000CF055EF0CF05AEF0CF004501DEC10F05A
:1018B00099EF0CF00650D96EDA6A0A0ED926DE507E
:1018C000DE10D8B466EF0CF068EF0CF081EF0CF08E
:1018D0000650D96EDA6A0A0ED9260650E16EE26A1F
:1018E000030EE126DE50E65CE650800A0B6EDE5009
:1018F000800A0B58D8B07FEF0CF081EF0CF099EF15
:101900000CF00650D96EDA6A030ED926DF50076E46
:101910000650D96EDA6ADF500724D96EDA6A04C03D
:10192000DFFF0650D96EDA6A030ED926DE2A000ED2
:10193000DD221200010E16EC0FF045C032F0010E50
:10194000336E46C034F047C035F048C036F049C069
:1019500037F033EC0FF045C009F067EC0FF0020EE2
:1019600016EC0FF04C044D10D8A4B9EF0CF0BBEFFF
:101970000CF0CBEF0CF045C032F01B0E336E4AC0BA
:1019800034F04BC035F033EC0FF045C009F067EC94
:101990000FF0D7EF0CF045C032F00F0E336E4AC097
:1019A00034F04BC035F033EC0FF0C5EF0CF0110EF6
:1019B0004F6E3C0E4E6ECB0EE82EFED74E2EFCD751
:1019C0004F2EFAD70000120054A0E9EF0CF0EBEF15
:1019D0000CF0F1EF0CF012C00CF011C00DF0DAECCD
:1019E0000EF014BEF8EF0CF0F6EF0CF0FCEF0CF07C
:1019F000000E146E000E136E000E176E000E166EA3
:101A00000CEF0DF0000E056E200E046E11C006F0F6
:101A100045EC0CF0164A172A1350165C1750800A32
:101A2000156E1450800A1558D8A019EF0DF01BEF51
:101A30000DF002EF0DF054B020EF0DF022EF0DF09D
:101A400028EF0DF012C00CF011C00DF0DAEC0EF022
:101A50001200839C839482968294859685927B9CC7
:101A60007B947A987A9A7A9C7A9E030E53EC0EF0C5
:101A7000D00EE82EFED7000E056E280EF8EC0EF004
:101A8000D00EE82EFED7000E056E280EF8EC0EF0F4
:101A9000C50EE82EFED70000000E056E0C0EF8EC09
:101AA0000EF0C50EE82EFED70000000E056E010EEA
:101AB000F8EC0EF0200E096ECA0EE82EFED7092EA5
:101AC000FCD7000E056E060EF8EC0EF0000E056E4B
:101AD0000F0EF8EC0EF01200010E1A6E030E161423
:101AE000186E000E1714196E18501910D8A47BEF39
:101AF0000DF07DEF0DF090EF0DF016C011F017C056
:101B000012F0000E146E640E136E87EC0EF011507E
:101B10001210D8A48EEF0DF090EF0DF0A5EF0DF0A0
:101B200016C011F017C012F0010E146E900E136E55
:101B300087EC0EF011501210D8B4A1EF0DF0A3EF06
:101B40000DF0A5EF0DF0000E1A6E1AC016F0176A10
:101B5000120080B6AEEF0DF0B0EF0DF0E3EF0DF038
:101B60000B0E05180610D8A4B8EF0DF0BAEF0DF063
:101B7000E3EF0DF00450D96EDA6A010EDB5009E193
:101B8000060EDE5CD8A0C7EF0DF0C9EF0DF0E3EF55
:101B90000DF00750D96EDA6ADE50DE10D8A4D3EF0C
:101BA0000DF0D5EF0DF0E3EF0DF00450D96EDA6AC9
:101BB000080EDE6E000EDD6E0750D96EDA6A010E79
:101BC000DE6E000EDD6E1200000E0F6E000E0E6E49
:101BD0000C500D10D8B4EFEF0DF0F1EF0DF019EF40
:101BE0000EF0010E106EF9EF0DF0D8900C360D3698
:101BF000102A0DAEFEEF0DF000EF0EF0F5EF0DF038
:101C0000D8900E360F360C500A5C0D500B58D8A0E9
:101C10000CEF0EF00EEF0EF013EF0EF00C500A5E0C
:101C20000D500B5A0E80D8900D320C32102E00EF52
:101C30000EF00EC00AF00FC00BF012004304441067
:101C4000D8A425EF0EF027EF0EF052EF0EF0415022
:101C50004210D8A42EEF0EF030EF0EF052EF0EF03F
:101C600045C01BF046C01CF0000E1E6E030E1D6E1C
:101C700013EC07F04750D96EDA6A1BC0DEFF1CC0B8
:101C8000DDFF45C01BF046C01CF0000E1E6E0A0EA4
:101C90001D6E13EC07F04850D96EDA6A1BC0DEFFE8
:101CA0001CC0DDFF1200046E04A059EF0EF05BEFC4
:101CB0000EF05EEF0EF07A865FEF0EF07A9604A2D9
:101CC00064EF0EF066EF0EF069EF0EF07A846AEFC3
:101CD0000EF07A9404A46FEF0EF071EF0EF074EF33
:101CE0000EF07D8675EF0EF07D9604A67AEF0EF06D
:101CF0007CEF0EF07FEF0EF07D8280EF0EF07D9294
:101D000016EC10F01A0EE82EFED700D01200135079
:101D10001410D8B48EEF0EF090EF0EF0B4EF0EF07A
:101D2000010E156E98EF0EF0D89013361436152A62
:101D300014AE9DEF0EF09FEF0EF094EF0EF01350E7
:101D4000115C14501258D8A0A8EF0EF0AAEF0EF0B4
:101D5000AEEF0EF01350115E1450125AD890143298
:101D60001332152E9FEF0EF011C011F012C012F0B9
:101D700012002FC031F0C5EF0EF02EC023F0310E4F
:101D8000246E30C025F01FEC08F031C0F6FF0E0EB7
:101D9000F76E000EF86E0800F5500009D8A4D3EFD6
:101DA0000EF0D5EF0EF0BDEF0EF0000E2F6E000E10
:101DB0002E6E1200000E106E000E0F6EE9EF0EF088
:101DC0000EC004F0056A0DC006F045EC0CF00F4A99
:101DD000102A0C500F24D96EDA6ADF500E6E0E50A6
:101DE000D8A4F5EF0EF0F7EF0EF0E0EF0EF01200D2
:101DF000086E0504D8A4FFEF0EF001EF0FF004EF1A
:101E00000FF07B8C05EF0FF07B9C08380F0B066EF4
:101E1000065053EC0EF008500F0B076E075053ECB2
:101E20000EF0A00E00D0E82EFDD71200096E0904B6
:101E3000D8A41DEF0FF01FEF0FF024EF0FF0000EEE
:101E4000056E800EF8EC0EF0020E0918D8A42BEFE8
:101E50000FF02DEF0FF032EF0FF0000E056EC00EF9
:101E6000F8EC0EF01200340E386E32C039F0000E6D
:101E70003D6E000E3C6E000E446E000E436E390E39
:101E80002E6E33C02FF0380E306EB9EC0EF032509B
:101E90003C24D96EDA6ADF6A12000BBE52EF0FF0F3
:101EA00054EF0FF05AEF0FF00AC00AF00BC00BF01E
:101EB00066EF0FF00AC00CF00BC00DF00C1E0D1EEB
:101EC0000C4A0D2A0CC00AF00DC00BF0120072EF84
:101ED0000FF0010E056E0950D96EDA6ADF50F8EC8A
:101EE0000EF0092A0950D96EDA6ADF50D8A47BEFC8
:101EF0000FF07DEF0FF069EF0FF01200D6501F0BBF
:101F00004009D66ED688D650F00B0809D66ED58813
:101F10000E01298B339B1F9BF28AF28CF28E090EE5
:101F2000D46E830ED36ED58E1200000E796E000E25
:101F30007A6E7E907E9C000E7F6E8086000E816E93
:101F4000000E826E8690869C000E876E8896868430
:101F50000E01B495120004500602F3CF08F0F4CF3E
:101F600009F004500702F350092605500602F35009
:101F7000092608C004F009C005F01200868E0E0183
:101F8000D251F80B0309D26FD351F80B0509D36F67
:101F9000D083D089D1830CEC10F00E01D08F1200C9
:101FA000868E0E01CE51F80B0309CE6FCF51F80B80
:101FB0000509CF6FCC83CC89CD810CEC10F00E01DC
:101FC000CC8F120000EE8EF0220EEE6AE806FDE1E4
:101FD000546A536A526A516A506A55905592000188
:101FE00094EF09F0FFEC0FF0BEEC0FF0D0EC0FF027
:101FF0007EEC0FF095EC0FF029EC0DF012000E01C5
:102000002B8121912B8321932B852185298B1F9B4C
:10201000F28AF28CF28E1200F30E0E01C617C691F0
:10202000C751E00B1409C76FC68F12007B840A0EDC
:0C203000E82EFED700D07B9412001200B6
:020000040030CA
:02000000AAFF55
:020004009FFF5C
:00000001FF
