:0400000053EF00F0CA
:100018005980D8CF01F0E8CF02F0E0CF03F00E010D
:1000280033AB19EF00F01BEF00F039EF00F00001DF
:10003800AA4BAB2B090ED46E830ED36EAA51AB110B
:10004800D8B429EF00F02BEF00F037EF00F0AB51F8
:1000580007E1060EAA5DD8B034EF00F036EF00F0E5
:1000680037EF00F080960E01339B35A13EEF00F08C
:1000780040EF00F042EF00F08086359135A347EF5E
:1000880000F049EF00F04BEF00F08096359303C085
:10009800E0FF02C0E8FF01C0D8FF5990100076EFDA
:0200A8000FF057
:100E000000566F6C74616765203D2025642E253087
:100E1000326400683D302564202564202564006824
:0B0E20003D25642025642025640000AF
:100E2C001BC016F01CC017F03BEC0DF016C03DF0CB
:100E3C0017C03EF0000E0D6E050E0C6E010E1D243B
:100E4C00046E000E1E20056E000E076E0D0E066E53
:100E5C003FEC0FF004C00AF005C00BF078EC0DF07D
:100E6C000AC01FF00BC020F0000E146E640E136E3F
:100E7C001BC011F01CC012F01BEC0EF011501F2403
:100E8C00216E12502020226E000E146E640E136E12
:100E9C001BC011F01CC012F01BEC0EF0D8901232DB
:100EAC001132D8901232113211502124236E12506B
:100EBC002220246E000E0D6E640E0C6E1BC00AF008
:100ECC001CC00BF078EC0DF0D8900B320A32D89095
:100EDC000B320A320A502324256E0B502420266E26
:100EEC00000E0D6E640E0C6E1BC00AF01CC00BF0D5
:100EFC0078EC0DF0D8900A360B360A50255C276E2C
:100F0C000B502658286E010E2724376E000E282011
:100F1C00386E37C011F038C012F0000E146E070E88
:100F2C00136E1BEC0EF011C029F012C02AF0060E45
:100F3C002924116E000E2A20126E000E146E070E5C
:100F4C00136E1BEC0EF011C02BF012C02CF01E0E09
:100F5C002B24116E000E2C20126E000E146E070E38
:100F6C00136E1BEC0EF011C02DF012C02EF02D5094
:100F7C001F083F6E2E50D8A0E82A0008406E030EC2
:100F8C001D181E10D8A4CDEF07F0CFEF07F0F4EF2B
:100F9C0007F03D503E10D8A4D6EF07F0D8EF07F07D
:100FAC00DEEF07F0000E3A6E1C0E396EE2EF07F022
:100FBC00000E3A6E1D0E396E1F0E39242F6E000E68
:100FCC003A20306E3F502F24316E40503020326E1C
:100FDC0031C01BF032C01CF021EF08F00A0E1D18B6
:100FEC001E10D8A4FCEF07F0FEEF07F021EF08F07D
:100FFC003D503E10D8A405EF08F007EF08F00DEFB8
:10100C0008F0000E3C6E1C0E3B6E11EF08F0000E4B
:10101C003C6E1D0E3B6EF50E3B24336E000E3C20D9
:10102C00346E3F503324356E40503420366E35C00C
:10103C001BF036C01CF012002450D96EDA6ADFCFD8
:10104C00F6FF0E0EF76E000EF86E0800F550250A2E
:10105C00D8A433EF08F035EF08F0CFEF08F02450A8
:10106C00D96EDA6ADF2A000E556E000E546E54C02B
:10107C0058F056685768000E2C6E6BEF08F05882CB
:10108C002450D96EDA6ADF2A6BEF08F0010E2C6E51
:10109C006BEF08F02450D96EDA6ADFCFF6FF0E0E34
:1010AC00F76E000EF86E0800F550266E276A275072
:1010BC00000AD8B464EF08F04CEF08F02650300A60
:1010CC00D8B445EF08F04CEF08F02C50D8B471EFC1
:1010DC0008F073EF08F050EF08F024C00AF025C0B8
:1010EC000BF06EEC0BF00AC054F00BC055F055BE73
:1010FC0084EF08F082EF08F089EF08F05880546C08
:10110C00551ED8B0552A2450D96EDA6ADF502D6E90
:10111C002DC0F6FF0E0EF76E000EF86E0800F5509F
:10112C00640AD8B49CEF08F09EEF08F0AEEF08F01C
:10113C002DC0F6FF0E0EF76E000EF86E0800F5507F
:10114C00690AD8A4ACEF08F0AEEF08F0C9EF08F0CC
:10115C002550D96EDA6A020EDF26DF5CD96EDA6AA8
:10116C00DECF28F0DECF29F02450D96EDA6A2D2894
:10117C00DF6E23C018F028C019F029C01AF0E3EC78
:10118C0008F0E2EF08F02450D96EDA6ADF2AE2EFB9
:10119C0008F02450D96EDA6ADFCFF6FF0E0EF76E28
:1011AC00000EF86E0800F550046E056A23C006F0B8
:1011BC001CEC0CF0C9EF08F01200010E1D6E1ABEEB
:1011CC00EAEF08F0EDEF08F0010EEEEF08F0000E7C
:1011DC00206E54C01EF055C01FF02050D8B4F9EF4B
:1011EC0008F0FBEF08F012EF09F01E06D8A01F065E
:1011FC002050D8A404EF09F006EF09F00CEF09F029
:10120C00000E1C6E2B0E1B6E10EF09F0000E1C6EE8
:10121C002D0E1B6E1BC020F0000E226E1F0E216EB9
:10122C00000E0001A96F48EF09F02106D8A0220694
:10123C0021508A0FD96EDA6A19C004F01AC005F071
:10124C00000E076E0A0E066E16EC0BF004C00AF0C8
:10125C0005C00BF0E1EC0EF00A50300FDF6E000E03
:10126C001D6E1E06D8A01F0619C004F01AC005F08A
:10127C00000E076E0A0E066EFBEC09F004C019F0A6
:10128C0005C01AF022BE53EF09F0225008E12104E8
:10129C00D8A053EF09F055EF09F07AEF09F0195087
:1012AC001A10D8A45CEF09F05EEF09F01BEF09F0FF
:1012BC001D50D8A464EF09F066EF09F01BEF09F09C
:1012CC001FBE71EF09F01F5008E11E04D8A071EF8A
:1012DC0009F073EF09F07AEF09F058B278EF09F0E2
:1012EC007AEF09F01BEF09F02050D8B480EF09F029
:1012FC0082EF09F08BEF09F02106D8A022062150CD
:10130C008A0FD96EDA6A20C0DFFF18C011F02150A5
:10131C008A0F126E1EC013F01FC014F071EC0CF08B
:10132C00120004A09CEF09F09EEF09F0A1EF09F068
:10133C007F80A2EF09F07F9004A2A7EF09F0A9EF3C
:10134C0009F0ACEF09F07F82ADEF09F07F9204A4B5
:10135C00B2EF09F0B4EF09F0B7EF09F07984B8EF08
:10136C0009F0799404A6BDEF09F0BFEF09F0C2EFC4
:10137C0009F07E8CC3EF09F07E9C04A8C8EF09F03D
:10138C00CAEF09F0CDEF09F07988CEEF09F0799822
:10139C0004AAD3EF09F0D5EF09F0D8EF09F0798A58
:1013AC00D9EF09F0799A04ACDEEF09F0E0EF09F01F
:1013BC00E3EF09F07E80E4EF09F07E9004AEE9EFF4
:1013CC0009F0EBEF09F0EEEF09F07A80EFEF09F09E
:1013DC007A9005A0F4EF09F0F6EF09F0F9EF09F0B7
:1013EC007A82FAEF09F07A921200000E096E07BEAB
:1013FC0004EF0AF002EF0AF00AEF0AF0066C071E7F
:10140C00D8B0072A010E096E05BE11EF0AF00FEFD6
:10141C000AF017EF0AF0046C051ED8B0052A010E6D
:10142C00091A000E0B6E000E0A6E06500710D8B487
:10143C0022EF0AF024EF0AF04CEF0AF0010E086ECE
:10144C002CEF0AF0D89006360736082A07AE31EF93
:10145C000AF033EF0AF028EF0AF0D8900A360B3670
:10146C000650045C07500558D8A03FEF0AF041EF36
:10147C000AF046EF0AF00650045E0750055A0A803F
:10148C00D89007320632082E33EF0AF00950D8B440
:10149C0052EF0AF054EF0AF058EF0AF00A6C0B1EE8
:1014AC00D8B00B2A0AC004F00BC005F012001B5078
:1014BC00D96EDA6A180EDE18DE10D8A468EF0AF0BE
:1014CC006AEF0AF075EF0AF01B50D96EDA6ADE6A21
:1014DC00DD6A1C50D96EDA6ADE2A000EDD221C5041
:1014EC00D96EDA6A6D0EDE1806E1DE04D8A481EF3F
:1014FC000AF083EF0AF0A2EF0AF01DC016F0176A8B
:10150C003BEC0DF016C020F017C021F0205021103C
:10151C00D8A493EF0AF095EF0AF0A2EF0AF01C5052
:10152C00D96EDA6A010EDE6E000EDD6E1D50D96EBC
:10153C00DA6ADE2A000EDD221C50D96EDA6A6E0ED3
:10154C00DE1806E1DE04D8A4AEEF0AF0B0EF0AF024
:10155C00BDEF0AF01C50D96EDA6A010EDE6E000E79
:10156C00DD6E1D50D96EDA6ADE2A000EDD22120005
:10157C00010E0001896F6C0E886F070E876FE80EE5
:10158C00866F000E856F000E846F87EC0FF0AAC07B
:10159C0004F0ABC005F097EC09F0010EAAEC0EF0CC
:1015AC00600E476EAAC048F0ABC049F088C04AF044
:1015BC0089C04BF086C04CF087C04DF0F9EC0CF0B4
:1015CC00AAC041F0ABC042F088C043F089C044F0DF
:1015DC0086C045F087C046F0800E476E820E486E7E
:1015EC00B2EC0DF088C004F089C005F080C006F0A4
:1015FC0081C007F082C008F083C009F0AA0E0A6E01
:10160C00840E0B6EC5EC0BF0AA0E1B6E880E1C6EB6
:10161C00860E1D6E5DEC0AF0CDEF0AF053EF00F074
:10162C00000E096E05BE1FEF0BF01DEF0BF025EF42
:10163C000BF0046C051ED8B0052A010E096E07BE0E
:10164C002CEF0BF02AEF0BF030EF0BF0066C071EB3
:10165C00D8B0072A06500710D8B437EF0BF039EF83
:10166C000BF05DEF0BF0010E086E41EF0BF0D89014
:10167C0006360736082A07AE46EF0BF048EF0BF09C
:10168C003DEF0BF00650045C07500558D8A051EF05
:10169C000BF053EF0BF057EF0BF00650045E0750B6
:1016AC00055AD89007320632082E48EF0BF0095035
:1016BC00D8B463EF0BF065EF0BF069EF0BF0046C33
:1016CC00051ED8B0052A04C004F005C005F01200B0
:1016DC00000E0E6E000E0D6E0A50D96EDA6ADFCF58
:1016EC00F6FF0E0EF76E000EF86E0800F5502A0A83
:1016FC00D8A483EF0BF085EF0BF0ABEF0BF00A5097
:10170C00D96EDA6ADF2A0B50D96EDA6A020EDF263E
:10171C00DF5CD96EDA6ADECF0DF0DECF0EF0C0EFF3
:10172C000BF00DC004F00EC005F0000E076E0A0E93
:10173C00066E3FEC0FF00C5004240D6E000E0520CD
:10174C000E6E0A50D96EDA6ADF2A0A50D96EDA6A3E
:10175C00DFCFF6FF0E0EF76E000EF86E0800F55098
:10176C00D00F0C6E090E0C64BEEF0BF0C0EF0BF03B
:10177C0097EF0BF00DC00AF00EC00BF012000650E4
:10178C00041807E107500518D8A4CFEF0BF0D1EFE0
:10179C000BF0E9EF0BF00A50D96EDA6A020EDE1884
:1017AC00DE10D8A4DCEF0BF0DEEF0BF0E9EF0BF062
:1017BC000A50D96EDA6ADE2A000EDD220B50D96E81
:1017CC00DA6ADE6ADD6A0850041807E10950051868
:1017DC00D8A4F3EF0BF0F5EF0BF01BEF0CF00A5065
:1017EC00D96EDA6A020EDE18DE10D8A400EF0CF007
:1017FC0002EF0CF01BEF0CF00B50D96EDA6ADE50D6
:10180C00DE10D8A40CEF0CF00EEF0CF01BEF0CF06C
:10181C000A50D96EDA6ADE06000EDD5A0B50D96E0C
:10182C00DA6A010EDE6E000EDD6E12000650D8B4C0
:10183C0022EF0CF024EF0CF02CEF0CF00650D8A497
:10184C002AEF0CF02CEF0CF031EF0CF00450B2EC52
:10185C000FF070EF0CF00650D96EDA6A0A0ED9262A
:10186C00DE50DE10D8B43DEF0CF03FEF0CF058EF2B
:10187C000CF00650D96EDA6A0A0ED9260650E16EC3
:10188C00E26A030EE126DE50E65CE650800A0B6E3F
:10189C00DE50800A0B58D8B056EF0CF058EF0CF015
:1018AC0070EF0CF00650D96EDA6A030ED926DF50B1
:1018BC00076E0650D96EDA6ADF500724D96EDA6AE1
:1018CC0004C0DFFF0650D96EDA6A030ED926DE2A71
:1018DC00000EDD22120058A076EF0CF078EF0CF021
:1018EC007EEF0CF012C00CF011C00DF06EEC0EF08F
:1018FC0014BE85EF0CF083EF0CF089EF0CF0000EAA
:10190C00146E000E136E000E176E000E166E99EF0D
:10191C000CF0000E056E200E046E11C006F01CECCF
:10192C000CF0164A172A1350165C1750800A156EC5
:10193C001450800A1558D8A0A6EF0CF0A8EF0CF0A4
:10194C008FEF0CF058B0ADEF0CF0AFEF0CF0B5EF33
:10195C000CF012C00CF011C00DF06EEC0EF0120079
:10196C00839C839482968294859685927B9C7B94AF
:10197C007A987A9A7A9C7A9E030EE7EC0DF0D00E48
:10198C00E82EFED7000E056E280E8CEC0EF0D00E55
:10199C00E82EFED7000E056E280E8CEC0EF0C50E50
:1019AC00E82EFED70000000E056E0C0E8CEC0EF02F
:1019BC00C50EE82EFED70000000E056E010E8CEC55
:1019CC000EF0200E096ECA0EE82EFED7092EFCD79B
:1019DC00000E056E060E8CEC0EF0000E056E0F0E52
:1019EC008CEC0EF01200495007E10A0E485CD8B09E
:1019FC0002EF0DF004EF0DF018EF0DF047C032F0D0
:101A0C00130E336E48C034F049C035F04AC036F07E
:101A1C004BC037F04CC038F04DC039F0C7EC0EF06D
:101A2C002AEF0DF047C032F01F0E336E48C034F071
:101A3C0049C035F04AC036F04BC037F04CC038F0D6
:101A4C004DC039F0C7EC0EF047C009F0FBEC0EF0BE
:101A5C00110E4F6E3C0E4E6ECB0EE82EFED74E2E58
:101A6C00FCD74F2EFAD700001200010E1A6E030E8F
:101A7C001614186E000E1714196E18501910D8A4DD
:101A8C004AEF0DF04CEF0DF05FEF0DF016C011F0BA
:101A9C0017C012F0000E146E640E136E1BEC0EF0D9
:101AAC0011501210D8A45DEF0DF05FEF0DF074EF34
:101ABC000DF016C011F017C012F0010E146E900E3E
:101ACC00136E1BEC0EF011501210D8B470EF0DF019
:101ADC0072EF0DF074EF0DF0000E1A6E1AC016F0C6
:101AEC00176A1200000E0F6E000E0E6E0C500D10C9
:101AFC00D8B483EF0DF085EF0DF0ADEF0DF0010EC6
:101B0C00106E8DEF0DF0D8900C360D36102A0DAEF0
:101B1C0092EF0DF094EF0DF089EF0DF0D8900E369A
:101B2C000F360C500A5C0D500B58D8A0A0EF0DF0DE
:101B3C00A2EF0DF0A7EF0DF00C500A5E0D500B5AF2
:101B4C000E80D8900D320C32102E94EF0DF00EC08A
:101B5C000AF00FC00BF0120043044410D8A4B9EFE4
:101B6C000DF0BBEF0DF0E6EF0DF041504210D8A494
:101B7C00C2EF0DF0C4EF0DF0E6EF0DF045C01BF019
:101B8C0046C01CF0000E1E6E030E1D6E16EC07F008
:101B9C004750D96EDA6A1BC0DEFF1CC0DDFF45C0A2
:101BAC001BF046C01CF0000E1E6E0A0E1D6E16ECCD
:101BBC0007F04850D96EDA6A1BC0DEFF1CC0DDFF8F
:101BCC001200046E04A0EDEF0DF0EFEF0DF0F2EF4C
:101BDC000DF07A86F3EF0DF07A9604A2F8EF0DF083
:101BEC00FAEF0DF0FDEF0DF07A84FEEF0DF07A9424
:101BFC0004A403EF0EF005EF0EF008EF0EF07D8657
:101C0C0009EF0EF07D9604A60EEF0EF010EF0EF01D
:101C1C0013EF0EF07D8214EF0EF07D92ABEC0FF013
:101C2C001A0EE82EFED700D0120013501410D8B4A0
:101C3C0022EF0EF024EF0EF048EF0EF0010E156EB1
:101C4C002CEF0EF0D89013361436152A14AE31EF53
:101C5C000EF033EF0EF028EF0EF01350115C145011
:101C6C001258D8A03CEF0EF03EEF0EF042EF0EF003
:101C7C001350115E1450125AD89014321332152E80
:101C8C0033EF0EF011C011F012C012F012002FC081
:101C9C0031F059EF0EF02EC023F0310E246E30C00F
:101CAC0025F022EC08F031C0F6FF0E0EF76E000E98
:101CBC00F86E0800F5500009D8A467EF0EF069EF34
:101CCC000EF051EF0EF0000E2F6E000E2E6E120065
:101CDC00000E106E000E0F6E7DEF0EF00EC004F0B5
:101CEC00056A0DC006F01CEC0CF00F4A102A0C50C3
:101CFC000F24D96EDA6ADF500E6E0E50D8A489EF1D
:101D0C000EF08BEF0EF074EF0EF01200086E05045F
:101D1C00D8A493EF0EF095EF0EF098EF0EF07B8CAD
:101D2C0099EF0EF07B9C08380F0B066E0650E7EC13
:101D3C000DF008500F0B076E0750E7EC0DF0A00EDE
:101D4C0000D0E82EFDD71200096E0904D8A4B1EF1B
:101D5C000EF0B3EF0EF0B8EF0EF0000E056E800E25
:101D6C008CEC0EF0020E0918D8A4BFEF0EF0C1EFE8
:101D7C000EF0C6EF0EF0000E056EC00E8CEC0EF0E1
:101D8C001200340E3A6E32C03BF0000E3F6E000E65
:101D9C003E6E000E466E000E456E3B0E2E6E33C030
:101DAC002FF03A0E306E4DEC0EF032503E24D96EC0
:101DBC00DA6ADF6A12000BBEE6EF0EF0E8EF0EF007
:101DCC00EEEF0EF00AC00AF00BC00BF0FAEF0EF0BB
:101DDC000AC00CF00BC00DF00C1E0D1E0C4A0D2A87
:101DEC000CC00AF00DC00BF0120006EF0FF0010E44
:101DFC00056E0950D96EDA6ADF508CEC0EF0092AA8
:101E0C000950D96EDA6ADF50D8A40FEF0FF011EF3A
:101E1C000FF0FDEF0EF01200D6501F0B4009D66EDE
:101E2C00D688D650F00B0809D66ED5880E01298BB2
:101E3C00339B1F9BF28AF28CF28E090ED46E830EAA
:101E4C00D36ED58E1200000E796E000E7A6E7E90D7
:101E5C007E9C000E7F6E8086000E816E000E826E60
:101E6C008690869C000E876E889686840E01B495AB
:101E7C00120004500602F3CF08F0F4CF09F004501E
:101E8C000702F350092605500602F350092608C034
:101E9C0004F009C005F01200868E0E01D251F80B29
:101EAC000309D26FD351F80B0509D36FD083D089B6
:101EBC00D183A1EC0FF00E01D08F1200868E0E0193
:101ECC00CE51F80B0309CE6FCF51F80B0509CF6F2C
:101EDC00CC83CC89CD81A1EC0FF00E01CC8F1200FC
:101EEC0000EE8AF0220EEE6AE806FDE100EE50F0FC
:101EFC00090EEE6AE806FDE1599059920001BEEF19
:101F0C000AF094EC0FF052EC0FF064EC0FF012ECC2
:101F1C000FF029EC0FF0B6EC0CF012000E012B8137
:101F2C0021912B8321932B852185298B1F9BF28A51
:101F3C00F28CF28E1200F30E0E01C617C691C75129
:101F4C00E00B1409C76FC68F12007B840A0EE82EB3
:0A1F5C00FED700D07B9412001200A3
:020000040030CA
:02000000AAFF55
:020004009FFF5C
:00000001FF
