:0400000038EF00F0E5
:060008001182A8EF07F0D1
:100018001180D8CF02F0E8CF03F0E0CF04F00E0152
:1000280033AB19EF00F01BEF00F030EF00F00F4A90
:10003800102A180E0F181010D8A425EF00F027EF7B
:1000480000F02BEF00F0000E106E000E0F6E090E80
:10005800D46E830ED36E339B04C0E0FF03C0E8FF69
:0C00680002C0D8FF11901000F1EF07F06B
:100E0000000005A006EF07F008EF07F00BEF07F072
:100E10007F800CEF07F07F9005A211EF07F013EF32
:100E200007F016EF07F07F8217EF07F07F9205A417
:100E30001CEF07F01EEF07F021EF07F0798422EF97
:100E400007F0799405A627EF07F029EF07F02CEFBC
:100E500007F07E8C2DEF07F07E9C05A832EF07F09F
:100E600034EF07F037EF07F0798838EF07F079981B
:100E700005AA3DEF07F03FEF07F042EF07F0798A50
:100E800043EF07F0799A05AC48EF07F04AEF07F017
:100E90004DEF07F07E804EEF07F07E9005AE53EFEA
:100EA00007F055EF07F058EF07F07A8059EF07F099
:100EB0007A9006A05EEF07F060EF07F063EF07F0AF
:100EC0007A8264EF07F07A92120088968096FCECA2
:100ED00007F0C6EC07F0DDEC07F002EC08F005C007
:100EE00009F006C00AF009C005F00AC006F001ECDE
:100EF00007F009500A10D8B480EF07F082EF07F02E
:100F000093EF07F00A5007E1060E095CD8B08BEFAB
:100F100007F08DEF07F093EF07F0000E086E010E5B
:100F2000076E97EF07F0000E086E000E076E0704BD
:100F30000810D8A49EEF07F0A0EF07F0A3EF07F08A
:100F400080866DEF07F080966DEF07F038EF00F0C8
:100F50000E0135A1AEEF07F0B0EF07F0C4EF07F0D8
:100F600080A6B5EF07F0B9EF07F0016A012ABAEFE2
:100F700007F0016A01460146014680500118F70B4F
:100F80000118806E0E01359111921100D6501F0B81
:100F90004009D66ED688D650F00B0809D66ED58893
:100FA0000E01298B339B1F9BF28AF28CF28E090E65
:100FB000D46E830ED36ED58E1200000E796E000EA5
:100FC0007A6E7E907E9C000E7F6E000E816E000E0B
:100FD000826E8690869C000E876E86840E01B49584
:100FE0001200106A0F6A0E6A0D6A0C6A0B6A119081
:100FF0001192000165EF07F00E012B812181F28C27
:0E100000F28E12000FC005F010C006F01200B4
:020000040030CA
:02000000AAFF55
:020004009FFF5C
:00000001FF
