:040000002CEF00F0F1
:060008005A8202EF0EF027
:100018005A80D8CF02F0E8CF03F0E0CF04F00E0109
:1000280033AB19EF00F01BEF00F024EF00F00001F4
:10003800884B892B090ED46E830ED36E0E01339B29
:1000480004C0E0FF03C0E8FF02C0D8FF5A901000C8
:04005800ECEF0EF0CB
:100E000000566F6C74616765203D2025642E253087
:100E1000326400683D302564202564202564006824
:0B0E20003D25642025642025640000AF
:100E2C0016C011F017C012F0C8EC0CF011C036F05F
:100E3C0012C037F0000E0F6E640E0E6E16C00CF062
:100E4C0017C00DF073EC0DF00CC01AF00DC01BF0B8
:100E5C00000E0F6E640E0E6E16C00CF017C00DF067
:100E6C0073EC0DF0D8900D320C32D8900D320C3250
:100E7C000C501A241C6E0D501B201D6E000E086E9B
:100E8C00640E076E16C005F017C006F005EC0DF0E9
:100E9C00D89006320532D8900632053205501C2403
:100EAC001E6E06501D201F6E000E086E640E076E1F
:100EBC0016C005F017C006F005EC0DF0D8900536FD
:100ECC00063605501E5C206E06501F58216E0B0E08
:100EDC002024306E000E2120316E30C00CF031C059
:100EEC000DF0000E0F6E070E0E6E73EC0DF00CC0B5
:100EFC0022F00DC023F0060E22240C6E000E2320CF
:100F0C000D6E000E0F6E070E0E6E73EC0DF00CC016
:100F1C0024F00DC025F01E0E24240C6E000E25208E
:100F2C000D6E000E0F6E070E0E6E73EC0DF00CC0F6
:100F3C0026F00DC027F026501F08386E2750D8A079
:100F4C00E82A0008396E030E18181910D8A4B1EF4E
:100F5C0007F0B3EF07F0D8EF07F036503710D8A4EE
:100F6C00BAEF07F0BCEF07F0C2EF07F0000E336EDC
:100F7C001C0E326EC6EF07F0000E336E1D0E326E75
:100F8C001F0E3224286E000E3320296E3850282470
:100F9C002A6E395029202B6E2AC016F02BC017F060
:100FAC0005EF08F00A0E18181910D8A4E0EF07F096
:100FBC00E2EF07F005EF08F036503710D8A4E9EF50
:100FCC0007F0EBEF07F0F1EF07F0000E356E1C0E9B
:100FDC00346EF5EF07F0000E356E1D0E346EF50E07
:100FEC0034242C6E000E35202D6E38502C242E6E91
:100FFC0039502D202F6E2EC016F02FC017F0120076
:10100C002550D96EDA6ADFCFF6FF0E0EF76E000EA2
:10101C00F86E0800F550250AD8A417EF08F019EF60
:10102C0008F0B3EF08F02550D96EDA6ADF2A000E0B
:10103C00566E000E556E55C059F057685868000E24
:10104C002D6E4FEF08F059822550D96EDA6ADF2ADF
:10105C004FEF08F0010E2D6E4FEF08F02550D96EB2
:10106C00DA6ADFCFF6FF0E0EF76E000EF86E080090
:10107C00F550276E286A2850000AD8B448EF08F0BB
:10108C0030EF08F02750300AD8B429EF08F030EFD1
:10109C0008F02D50D8B455EF08F057EF08F034EFA6
:1010AC0008F025C00BF026C00CF052EC0BF00BC076
:1010BC0055F00CC056F056BE68EF08F066EF08F01D
:1010CC006DEF08F05980556C561ED8B0562A255035
:1010DC00D96EDA6ADF502E6E2EC0F6FF0E0EF76E4A
:1010EC00000EF86E0800F550640AD8B480EF08F0D2
:1010FC0082EF08F092EF08F02EC0F6FF0E0EF76E9E
:10110C00000EF86E0800F550690AD8A490EF08F0AC
:10111C0092EF08F0ADEF08F02650D96EDA6A020EA5
:10112C00DF26DF5CD96EDA6ADECF29F0DECF2AF05B
:10113C002550D96EDA6A2E28DF6E24C019F029C02A
:10114C001AF02AC01BF080EC09F0C6EF08F025500D
:10115C00D96EDA6ADF2AC6EF08F02550D96EDA6A42
:10116C00DFCFF6FF0E0EF76E000EF86E0800F5508E
:10117C00056E066A24C007F0A9EC0BF0ADEF08F081
:10118C001200000E0001876F090E866F070E856F27
:10119C00E80E846F000E816F000E806F07EC0FF06D
:1011AC00C8EC0EF0DAEC0EF088EC0EF09FEC0EF0C2
:1011BC0043EC0CF088C005F089C006F034EC0AF062
:1011CC00010E20EC0EF0600E486E88C049F089C00C
:1011DC004AF086C04BF087C04CF084C04DF085C0FF
:1011EC004EF086EC0CF0000186058711D8A401EFB7
:1011FC0009F003EF09F020EF09F088518911D8A408
:10120C000AEF09F00CEF09F020EF09F084C016F09A
:10121C0085C017F0000E196E030E186E16EC07F051
:10122C0084C016F085C017F0000E196E0A0E186EE9
:10123C0016EC07F0000188518911D8B428EF09F099
:10124C002AEF09F036EF09F0895107E1060E885DA7
:10125C00D8B033EF09F035EF09F036EF09F080869E
:10126C00180E88198911D8A43EEF09F040EF09F047
:10127C0046EF09F0000E896F000E886F864B872BA6
:10128C006D0E861906E18705D8A44FEF09F051EFD2
:10129C0009F06BEF09F084C011F085C012F0C8ECB6
:1012AC000CF011C082F012C083F000018251831146
:1012BC00D8A463EF09F065EF09F06BEF09F0000EAD
:1012CC00876F010E866F844B852B6E0E861906E197
:1012DC008705D8A474EF09F076EF09F0E0EF08F079
:1012EC00000E876F010E866F844B852BE0EF08F0A4
:1012FC002CEF00F0010E1E6E1BBE87EF09F08AEF7B
:10130C0009F0010E8BEF09F0000E216E55C01FF095
:10131C0056C020F02150D8B496EF09F098EF09F0A0
:10132C00AFEF09F01F06D8A020062150D8A4A1EFDA
:10133C0009F0A3EF09F0A9EF09F0000E1D6E2B0EBA
:10134C001C6EADEF09F0000E1D6E2D0E1C6E1CC038
:10135C0021F0000E236E1F0E226E000E0001A96FED
:10136C00E5EF09F02206D8A0230622508A0FD96E89
:10137C00DA6A1AC005F01BC006F0000E086E0A0EE1
:10138C00076EFAEC0AF005C00BF006C00CF057EC37
:10139C000EF00B50300FDF6E000E1E6E1F06D8A025
:1013AC0020061AC005F01BC006F0000E086E0A0ECF
:1013BC00076E98EC0AF005C01AF006C01BF023BEAD
:1013CC00F0EF09F0235008E12204D8A0F0EF09F067
:1013DC00F2EF09F017EF0AF01A501B10D8A4F9EF2E
:1013EC0009F0FBEF09F0B8EF09F01E50D8A401EF9B
:1013FC000AF003EF0AF0B8EF09F020BE0EEF0AF086
:10140C00205008E11F04D8A00EEF0AF010EF0AF0EC
:10141C0017EF0AF059B215EF0AF017EF0AF0B8EF10
:10142C0009F02150D8B41DEF0AF01FEF0AF028EF95
:10143C000AF02206D8A0230622508A0FD96EDA6A47
:10144C0021C0DFFF19C012F022508A0F136E1FC08B
:10145C0014F020C015F0FEEC0BF0120005A039EFD3
:10146C000AF03BEF0AF03EEF0AF07F803FEF0AF004
:10147C007F9005A244EF0AF046EF0AF049EF0AF01C
:10148C007F824AEF0AF07F9205A44FEF0AF051EFEA
:10149C000AF054EF0AF0798455EF0AF0799405A616
:1014AC005AEF0AF05CEF0AF05FEF0AF07E8C60EF07
:1014BC000AF07E9C05A865EF0AF067EF0AF06AEF68
:1014CC000AF079886BEF0AF0799805AA70EF0AF0A8
:1014DC0072EF0AF075EF0AF0798A76EF0AF0799AD2
:1014EC0005AC7BEF0AF07DEF0AF080EF0AF07E800E
:1014FC0081EF0AF07E9005AE86EF0AF088EF0AF0D5
:10150C008BEF0AF07A808CEF0AF07A9006A091EFBC
:10151C000AF093EF0AF096EF0AF07A8297EF0AF04E
:10152C007A921200000E0A6E08BEA1EF0AF09FEF2D
:10153C000AF0A7EF0AF0076C081ED8B0082A010EB3
:10154C000A6E06BEAEEF0AF0ACEF0AF0B4EF0AF08A
:10155C00056C061ED8B0062A010E0A1A000E0C6E77
:10156C00000E0B6E07500810D8B4BFEF0AF0C1EF95
:10157C000AF0E9EF0AF0010E096EC9EF0AF0D890F3
:10158C0007360836092A08AECEEF0AF0D0EF0AF07B
:10159C00C5EF0AF0D8900B360C360750055C085096
:1015AC000658D8A0DCEF0AF0DEEF0AF0E3EF0AF001
:1015BC000750055E0850065A0B80D8900832073247
:1015CC00092ED0EF0AF00A50D8B4EFEF0AF0F1EF81
:1015DC000AF0F5EF0AF00B6C0C1ED8B00C2A0BC0FD
:1015EC0005F00CC006F01200000E0A6E06BE03EFEA
:1015FC000BF001EF0BF009EF0BF0056C061ED8B0E9
:10160C00062A010E0A6E08BE10EF0BF00EEF0BF05F
:10161C0014EF0BF0076C081ED8B0082A07500810FE
:10162C00D8B41BEF0BF01DEF0BF041EF0BF0010EDC
:10163C00096E25EF0BF0D89007360836092A08AE4C
:10164C002AEF0BF02CEF0BF021EF0BF00750055CA1
:10165C0008500658D8A035EF0BF037EF0BF03BEFE6
:10166C000BF00750055E0850065AD8900832073226
:10167C00092E2CEF0BF00A50D8B447EF0BF049EFC2
:10168C000BF04DEF0BF0056C061ED8B0062A05C00A
:10169C0005F006C006F01200000E0F6E000E0E6E66
:1016AC000B50D96EDA6ADFCFF6FF0E0EF76E000E16
:1016BC00F86E0800F5502A0AD8A467EF0BF069EF12
:1016CC000BF08FEF0BF00B50D96EDA6ADF2A0C504F
:1016DC00D96EDA6A020EDF26DF5CD96EDA6ADECFEB
:1016EC000EF0DECF0FF0A4EF0BF00EC005F00FC024
:1016FC0006F0000E086E0A0E076EB5EC0EF00D50DB
:10170C0005240E6E000E06200F6E0B50D96EDA6A91
:10171C00DF2A0B50D96EDA6ADFCFF6FF0E0EF76EAA
:10172C00000EF86E0800F550D00F0D6E090E0D640A
:10173C00A2EF0BF0A4EF0BF07BEF0BF00EC00BF055
:10174C000FC00CF012000750D8B4AFEF0BF0B1EF94
:10175C000BF0B9EF0BF00750D8A4B7EF0BF0B9EFC3
:10176C000BF0BEEF0BF0055017EC0FF0FDEF0BF08C
:10177C000750D96EDA6A0A0ED926DE50DE10D8B4BC
:10178C00CAEF0BF0CCEF0BF0E5EF0BF00750D96E76
:10179C00DA6A0A0ED9260750E16EE26A030EE126D8
:1017AC00DE50E65CE650800A0C6EDE50800A0C5867
:1017BC00D8B0E3EF0BF0E5EF0BF0FDEF0BF00750BB
:1017CC00D96EDA6A030ED926DF50086E0750D96E2F
:1017DC00DA6ADF500824D96EDA6A05C0DFFF0750D9
:1017EC00D96EDA6A030ED926DE2A000EDD2212002B
:1017FC0059A003EF0CF005EF0CF00BEF0CF013C03D
:10180C000DF012C00EF0C6EC0DF015BE12EF0CF080
:10181C0010EF0CF016EF0CF0000E156E000E146E9F
:10182C00000E186E000E176E26EF0CF0000E066EF2
:10183C00200E056E12C007F0A9EC0BF0174A182AFF
:10184C001450175C1850800A166E1550800A1658E2
:10185C00D8A033EF0CF035EF0CF01CEF0CF059B0B6
:10186C003AEF0CF03CEF0CF042EF0CF013C00DF023
:10187C0012C00EF0C6EC0DF01200839C839482967D
:10188C008294859685927B9C7B947A987A9A7A9CA2
:10189C007A9E030E3FEC0DF0D00EE82EFED7000E14
:1018AC00066E280EE4EC0DF0D00EE82EFED7000EDE
:1018BC00066E280EE4EC0DF0C50EE82EFED70000E7
:1018CC00000E066E0C0EE4EC0DF0C50EE82EFED7E5
:1018DC000000000E066E010EE4EC0DF0200E0A6EF8
:1018EC00CA0EE82EFED70A2EFCD7000E066E060E88
:1018FC00E4EC0DF0000E066E0F0EE4EC0DF0120091
:10190C004A5007E10A0E495CD8B08FEF0CF091EF0A
:10191C000CF0A5EF0CF048C033F0130E346E49C038
:10192C0035F04AC036F04BC037F04CC038F04DC0E3
:10193C0039F04EC03AF03DEC0EF0B7EF0CF048C069
:10194C0033F01F0E346E49C035F04AC036F04BC030
:10195C0037F04CC038F04DC039F04EC03AF03DEC89
:10196C000EF048C00AF071EC0EF0110E506E3C0EE9
:10197C004F6ECB0EE82EFED74F2EFCD7502EFAD73B
:10198C0000001200010E156E030E1114136E000EE2
:10199C001214146E13501410D8A4D7EF0CF0D9EF06
:1019AC000CF0ECEF0CF011C00CF012C00DF0000EAE
:1019BC000F6E640E0E6E73EC0DF00C500D10D8A45F
:1019CC00EAEF0CF0ECEF0CF001EF0DF011C00CF0A5
:1019DC0012C00DF0010E0F6E900E0E6E73EC0DF02A
:1019EC000C500D10D8B4FDEF0CF0FFEF0CF001EF24
:1019FC000DF0000E156E15C011F0126A1200000EDB
:101A0C000A6E000E096E07500810D8B410EF0DF0D6
:101A1C0012EF0DF03AEF0DF0010E0B6E1AEF0DF008
:101A2C00D890073608360B2A08AE1FEF0DF021EFC1
:101A3C000DF016EF0DF0D89009360A360750055CFC
:101A4C0008500658D8A02DEF0DF02FEF0DF034EF05
:101A5C000DF00750055E0850065A0980D8900832E0
:101A6C0007320B2E21EF0DF009C005F00AC006F06D
:101A7C001200056E05A045EF0DF047EF0DF04AEF93
:101A8C000DF07A864BEF0DF07A9605A250EF0DF023
:101A9C0052EF0DF055EF0DF07A8456EF0DF07A946D
:101AAC0005A45BEF0DF05DEF0DF060EF0DF07D86A2
:101ABC0061EF0DF07D9605A666EF0DF068EF0DF069
:101ACC006BEF0DF07D826CEF0DF07D9210EC0FF052
:101ADC001A0EE82EFED700D012000E500F10D8B4FC
:101AEC007AEF0DF07CEF0DF0A0EF0DF0010E106E03
:101AFC0084EF0DF0D8900E360F36102A0FAE89EF0A
:101B0C000DF08BEF0DF080EF0DF00E500C5C0F50C4
:101B1C000D58D8A094EF0DF096EF0DF09AEF0DF054
:101B2C000E500C5E0F500D5AD8900F320E32102EF4
:101B3C008BEF0DF00CC00CF00DC00DF0120030C08E
:101B4C0032F0B1EF0DF02FC024F0320E256E31C003
:101B5C0026F006EC08F032C0F6FF0E0EF76E000E03
:101B6C00F86E0800F5500009D8A4BFEF0DF0C1EFD6
:101B7C000DF0A9EF0DF0000E306E000E2F6E12005E
:101B8C00000E116E000E106ED5EF0DF00FC005F0AB
:101B9C00066A0EC007F0A9EC0BF0104A112A0D5082
:101BAC001024D96EDA6ADF500F6E0F50D8A4E1EF13
:101BBC000DF0E3EF0DF0CCEF0DF01200096E060402
:101BCC00D8A4EBEF0DF0EDEF0DF0F0EF0DF07B8CFA
:101BDC00F1EF0DF07B9C09380F0B076E07503FECB3
:101BEC000DF009500F0B086E08503FEC0DF0A00ED5
:101BFC0000D0E82EFDD712000E0135A108EF0EF033
:101C0C000AEF0EF01EEF0EF080A60FEF0EF013EFA2
:101C1C000EF0016A012A14EF0EF0016A014601462A
:101C2C00014680500118F70B0118806E0E0135919A
:101C3C005A9211000A6E0A04D8A427EF0EF029EF6D
:101C4C000EF02EEF0EF0000E066E800EE4EC0DF092
:101C5C00020E0A18D8A435EF0EF037EF0EF03CEF59
:101C6C000EF0000E066EC00EE4EC0DF01200350EF8
:101C7C003B6E33C03CF0000E406E000E3F6E000E0B
:101C8C00476E000E466E3C0E2F6E34C030F03B0E8D
:101C9C00316EA5EC0DF033503F24D96EDA6ADF6A51
:101CAC0012000CBE5CEF0EF05EEF0EF064EF0EF067
:101CBC000BC00BF00CC00CF070EF0EF00BC00DF065
:101CCC000CC00EF00D1E0E1E0D4A0E2A0DC00BF090
:101CDC000EC00CF012007CEF0EF0010E066E0A50D6
:101CEC00D96EDA6ADF50E4EC0DF00A2A0A50D96E8C
:101CFC00DA6ADF50D8A485EF0EF087EF0EF073EFA1
:101D0C000EF01200D6501F0B4009D66ED688D65056
:101D1C00F00B0809D66ED5880E01298B339B1F9BBF
:101D2C00F28AF28CF28E090ED46E830ED36ED58E9F
:101D3C001200000E796E000E7A6E7E907E9C000E64
:101D4C007F6E8096000E816E000E826E8690869C51
:101D5C00000E876E889686840E01B495120005508D
:101D6C000702F3CF09F0F4CF0AF005500802F35044
:101D7C000A2606500702F3500A2609C005F00AC0CD
:101D8C0006F01200868E0E01D251F80B0309D26FA9
:101D9C00D351F80B0509D36FD083D089D183FDECD7
:101DAC000EF00E01D08F1200868E0E01D251F80B60
:101DBC000309D26FD351F80B0509D36FD083D089A7
:101DCC00D181FDEC0EF00E01D08F120000EE88F0E8
:101DDC00220EEE6AE806FDE100EE51F0090EEE6A05
:101DEC00E806FDE15A905A920001C7EF08F0F30E95
:101DFC000E01C617C691C751E00B1409C76FC68FE9
:101E0C0012000E012B81298B21811F9BF28AF28CEF
:101E1C00F28E12007B840A0EE82EFED700D07B9443
:041E2C00120012008E
:020000040030CA
:02000000AAFF55
:020004009FFF5C
:00000001FF
