:0400000029EF00F0F4
:06000800498276EF0AF0C8
:100018004980D8CF02F0E8CF03F0E0CF04F00E011A
:1000280033AB19EF00F01BEF00F021EF00F07D84F7
:10003800090ED46E830ED36E339B04C0E0FF03C059
:0E004800E8FF02C0D8FF49901000C1EF0AF097
:100E00000000000E306E000E2F6E000E326E010ECE
:100E1000316E000E346E050E336E000E446E000E01
:100E2000436E000E426E000E416E070E406EE80EDD
:100E30003F6E000E3E6E000E3D6ECAEC0AF094EC62
:100E40000AF0ABEC0AF07DA428EF07F02AEF07F0D8
:100E50002DEF07F0434A442A7D9443C005F044C077
:100E600006F069EC09F041504210D8A43AEF07F0BF
:100E70003CEF07F059EF07F043504410D8A443EF7C
:100E800007F045EF07F059EF07F03FC00FF040C003
:100E900010F00FEC08F00FC037F010C038F03FC072
:100EA0000FF040C010F0BCEC08F00FC039F010C0DB
:100EB0003AF03750411807E138504218D8A463EF90
:100EC00007F065EF07F075EF07F0020E43184410C6
:100ED000D8A46DEF07F06FEF07F075EF07F0434A06
:100EE000442A000E3E6E000E3D6E3950411807E157
:100EF0003A504218D8A47FEF07F081EF07F09BEF3C
:100F000007F0020E43184410D8A489EF07F08BEFC6
:100F100007F09BEF07F03D503E10D8A492EF07F08A
:100F200094EF07F09BEF07F04306D8A04406000EAD
:100F30003E6E010E3D6E43504410D8B4A2EF07F050
:100F4000A4EF07F0B5EF07F0445007E1060E435C4D
:100F5000D8B0ADEF07F0AFEF07F0B5EF07F0000E38
:100F60003C6E010E3B6EB9EF07F0000E3C6E000EBA
:100F70003B6E3B043C10D8A4C0EF07F0C2EF07F073
:100F8000C5EF07F08086C6EF07F08096180E43186D
:100F90004410D8A4CEEF07F0D0EF07F0D6EF07F05B
:100FA000000E446E000E436E414A422A6D0E4118F7
:100FB00006E14204D8A4DFEF07F0E1EF07F0FAEF13
:100FC00007F03FC00AF040C00BF0CDEC09F00AC0BA
:100FD00035F00BC036F035503610D8A4F2EF07F0DC
:100FE000F4EF07F0FAEF07F0000E426E000E416ECC
:100FF0003F4A402A6E0E411806E14204D8A403EF8E
:1010000008F005EF08F023EF07F0000E426E000E27
:10101000416E3F4A402A23EF07F029EF00F00FC04E
:101020000AF010C00BF0CDEC09F00AC01BF00BC0A9
:101030001CF01B501C10D8A420EF08F022EF08F081
:1010400028EF08F0000E2A6E1C0E296E2CEF08F017
:10105000000E2A6E1D0E296E1F0E29241D6E000E15
:101060002A201E6E0FC005F010C006F0000E086E9C
:10107000640E076E44EC0AF005C02BF006C02CF09D
:101080000FC005F010C006F0000E086E640E076E6B
:101090000AEC0AF005C02DF006C02EF02DC011F0AC
:1010A0002EC012F0D890113612362DC013F02EC07B
:1010B00014F0D89014321332D890143213322BC05B
:1010C00015F02CC016F0D89016321532D890163282
:1010D000153213501524176E14501620186E115027
:1010E000175C196E125018581A6E2B5019262C5076
:1010F0001A220B0E1924056E000E1A20066E000E21
:10110000086E070E076E44EC0AF005C01FF006C01B
:1011100020F0060E1F24056E000E2020066E000E25
:10112000086E070E076E44EC0AF005C021F006C0F9
:1011300022F01E0E2124056E000E2220066E000EE7
:10114000086E070E076E44EC0AF005C023F006C0D7
:1011500024F023501F08256E2450D8A0E82A000848
:10116000266E25501D24276E26501E20286E27C06F
:101170000FF028C010F012000FC00AF010C00BF0E2
:10118000CDEC09F00AC01BF00BC01CF01B501C106A
:10119000D8A4CDEF08F0CFEF08F0D5EF08F0000E9F
:1011A0002A6E1C0E296ED9EF08F0000E2A6E1D0E55
:1011B000296EF50E29241D6E000E2A201E6E0FC00A
:1011C00005F010C006F0000E086E640E076E44ECC9
:1011D0000AF005C02BF006C02CF00FC005F010C0BF
:1011E00006F0000E086E640E076E0AEC0AF005C0E9
:1011F0002DF006C02EF02DC011F02EC012F0D890A8
:10120000113612362DC013F02EC014F0D8901432BF
:101210001332D890143213322BC015F02CC016F0B4
:10122000D89016321532D890163215321350152434
:10123000176E14501620186E1150175C196E12504C
:1012400018581A6E2B5019262C501A221D0E1924CC
:10125000056E000E1A20066E000E086E070E076E51
:1012600044EC0AF005C01FF006C020F0060E1F2453
:10127000056E000E2020066E000E086E070E076E2B
:1012800044EC0AF005C021F006C022F01E0E212415
:10129000056E000E2220066E000E086E070E076E09
:1012A00044EC0AF005C023F006C024F023501F08C8
:1012B000256E2450D8A0E82A0008266E25501D244B
:1012C000276E26501E20286E27C00FF028C010F071
:1012D000120005A06EEF09F070EF09F073EF09F04E
:1012E0007F8074EF09F07F9005A279EF09F07BEF22
:1012F00009F07EEF09F07F827FEF09F07F9205A46D
:1013000084EF09F086EF09F089EF09F079848AEF1C
:1013100009F0799405A68FEF09F091EF09F094EFA9
:1013200009F07E8C95EF09F07E9C05A89AEF09F0F4
:101330009CEF09F09FEF09F07988A0EF09F0799808
:1013400005AAA5EF09F0A7EF09F0AAEF09F0798A3D
:10135000ABEF09F0799A05ACB0EF09F0B2EF09F004
:10136000B5EF09F07E80B6EF09F07E9005AEBBEFD9
:1013700009F0BDEF09F0C0EF09F07A80C1EF09F084
:101380007A9006A0C6EF09F0C8EF09F0CBEF09F09C
:101390007A82CCEF09F07A921200010E0E6E030EE3
:1013A0000A140C6E000E0B140D6E0C500D10D8A408
:1013B000DCEF09F0DEEF09F0F1EF09F00AC005F00B
:1013C0000BC006F0000E086E640E076E44EC0AF0C7
:1013D00005500610D8A4EFEF09F0F1EF09F006EF81
:1013E0000AF00AC005F00BC006F0010E086E900E60
:1013F000076E44EC0AF005500610D8B402EF0AF06C
:1014000004EF0AF006EF0AF0000E0E6E0EC00AF0AE
:101410000B6A1200000E0A6E000E096E07500810CB
:10142000D8B415EF0AF017EF0AF03FEF0AF0010EFB
:101430000B6E1FEF0AF0D890073608360B2A08AE5D
:1014400024EF0AF026EF0AF01BEF0AF0D8900936D5
:101450000A360750055C08500658D8A032EF0AF04B
:1014600034EF0AF039EF0AF00750055E0850065ACB
:101470000980D890083207320B2E26EF0AF009C0F7
:1014800005F00AC006F0120007500810D8B44BEF60
:101490000AF04DEF0AF071EF0AF0010E096E55EFF8
:1014A0000AF0D89007360836092A08AE5AEF0AF033
:1014B0005CEF0AF051EF0AF00750055C085006583F
:1014C000D8A065EF0AF067EF0AF06BEF0AF007505B
:1014D000055E0850065AD89008320732092E5CEF94
:1014E0000AF005C005F006C006F012000E0135A195
:1014F0007CEF0AF07EEF0AF092EF0AF080A683EF0D
:101500000AF087EF0AF0016A012A88EF0AF0016AFF
:1015100001460146014680500118F70B0118806E04
:101520000E01359149921100D6501F0B4009D66E1D
:10153000D688D650F00B0809D66ED5880E01298BB7
:10154000339B1F9BF28AF28CF28E090ED46E830EAF
:10155000D36ED58E1200000E796E000E7A6E7E90DC
:101560007E9C000E7F6E8096000E816E000E826E55
:101570008690869C000E876E889686840E01B495B0
:101580001200486A476A466A456A499049920001D2
:1015900001EF07F00E012B812181F28CF28E7D94F8
:0415A000858412002C
:020000040030CA
:02000000AAFF55
:020004009FFF5C
:00000001FF
