:040000002BEF00F0F2
:060008001282D1EF07F0A7
:100018001280D8CF02F0E8CF03F0E0CF04F0858E4D
:100028000E0133AB1AEF00F01CEF00F023EF00F0E5
:100038007D507D50090ED46E830ED36E339B04C061
:10004800E0FF03C0E8FF02C0D8FF129010001AEFCB
:0200580008F0AE
:100E00000000858E7D9E8896809625EC08F0EFEC9C
:100E100007F006EC08F08DBE10EF07F013EF07F0B7
:100E2000010E14EF07F0000E076E8DBE1AEF07F0EB
:100E30001DEF07F0010E1EEF07F0000E071AD8B4E1
:100E400024EF07F026EF07F028EF07F00A4A0B2AF5
:100E5000180E0A180B10D8A430EF07F032EF07F085
:100E600036EF07F0000E0B6E000E0A6E0AC005F09A
:100E70000BC006F06DEC07F00B5007E1050E0A5CA5
:100E8000D8B045EF07F047EF07F058EF07F00B50E9
:100E900009E1020E0A5CD8A050EF07F052EF07F00C
:100EA00058EF07F0000E096E000E086E5CEF07F0B9
:100EB000000E096E010E086E08040910D8A463EF35
:100EC00007F065EF07F068EF07F080860BEF07F09B
:100ED00080960BEF07F02BEF00F005A072EF07F004
:100EE00074EF07F077EF07F07F8078EF07F07F90DF
:100EF00005A27DEF07F07FEF07F082EF07F07F821A
:100F000083EF07F07F9205A488EF07F08AEF07F0E0
:100F10008DEF07F079848EEF07F0799405A693EFB3
:100F200007F095EF07F098EF07F07E8C99EF07F048
:100F30007E9C05A89EEF07F0A0EF07F0A3EF07F057
:100F40007988A4EF07F0799805AAA9EF07F0ABEF2D
:100F500007F0AEEF07F0798AAFEF07F0799A05ACAA
:100F6000B4EF07F0B6EF07F0B9EF07F07E80BAEF05
:100F700007F07E9005AEBFEF07F0C1EF07F0C4EFBA
:100F800007F07A80C5EF07F07A9006A0CAEF07F065
:100F9000CCEF07F0CFEF07F07A82D0EF07F07A922C
:100FA00012000E0135A1D7EF07F0D9EF07F0EDEFF2
:100FB00007F080A6DEEF07F0E2EF07F0016A012AF2
:100FC000E3EF07F0016A014601460146805001182F
:100FD000F70B0118806E0E01359112921100D65058
:100FE0001F0B4009D66ED688D650F00B0809D66E76
:100FF000D5880E01298B339B1F9BF28AF28CF28ECF
:10100000090ED46E830ED36ED58E1200000E796E4B
:10101000000E7A6E7E907E9C000E7F6E000E816EBA
:10102000000E826E8690869C000E876E86840E016E
:10103000B4951200116A106A0F6A0E6A0D6A0C6A82
:1010400012901292000101EF07F00E012B81218115
:06105000F28CF28E12008A
:020000040030CA
:02000000AAFF55
:020004009FFF5C
:00000001FF
