:040000005EEF00F0BF
:100018005580D8CF01F0E8CF02F0E0CF03F00E0111
:1000280033AB19EF00F01BEF00F044EF00F00001D4
:10003800AE4BAF2B090ED46E830ED36EAE51AF11FB
:10004800D8B429EF00F02BEF00F037EF00F0AF51F4
:1000580007E1050EAE5DD8B034EF00F036EF00F0E2
:1000680037EF00F08096060EAE19AF11D8A43FEF17
:1000780000F041EF00F042EF00F080860E01339B64
:1000880035A149EF00F04BEF00F04DEF00F080860E
:10009800359135A352EF00F054EF00F056EF00F021
:1000A8008096359303C0E0FF02C0E8FF01C0D8FF87
:0800B80055901000DDEF0FF080
:100E000000483A2530326420443A25303364005992
:100E10003A2564204E6F726D616C00593A2564204A
:100E20004C65617000001BC016F01CC017F067EC29
:100E30000DF016C03DF017C03EF0000E0D6E050E11
:100E40000C6E010E1D24046E000E1E20056E000E99
:100E5000076E0D0E066EA6EC0FF004C00AF005C07A
:100E60000BF0DFEC0DF00AC01FF00BC020F0000EFD
:100E7000146E640E136E1BC011F01CC012F082ECD5
:100E80000EF011501F24216E12502020226E000EF1
:100E9000146E640E136E1BC011F01CC012F082ECB5
:100EA0000EF0D89012321132D89012321132115005
:100EB0002124236E12502220246E000E0D6E640E2B
:100EC0000C6E1BC00AF01CC00BF0DFEC0DF0D890CC
:100ED0000B320A32D8900B320A320A502324256E84
:100EE0000B502420266E000E0D6E640E0C6E1BC07F
:100EF0000AF01CC00BF0DFEC0DF0D8900A360B3670
:100F00000A50255C276E0B502658286E010E2724A8
:100F1000376E000E2820386E37C011F038C012F03E
:100F2000000E146E070E136E82EC0EF011C029F045
:100F300012C02AF0060E2924116E000E2A20126E0D
:100F4000000E146E070E136E82EC0EF011C02BF023
:100F500012C02CF01E0E2B24116E000E2C20126ECF
:100F6000000E146E070E136E82EC0EF011C02DF001
:100F700012C02EF02D501F083F6E2E50D8A0E82A28
:100F80000008406E030E1D181E10D8A4CAEF07F00B
:100F9000CCEF07F0F1EF07F03D503E10D8A4D3EFAF
:100FA00007F0D5EF07F0DBEF07F0000E3A6E1C0EEE
:100FB000396EDFEF07F0000E3A6E1D0E396E1F0E10
:100FC00039242F6E000E3A20306E3F502F24316EA0
:100FD00040503020326E31C01BF032C01CF01EEF8A
:100FE00008F00A0E1D181E10D8A4F9EF07F0FBEF49
:100FF00007F01EEF08F03D503E10D8A402EF08F0B5
:1010000004EF08F00AEF08F0000E3C6E1C0E3B6E79
:101010000EEF08F0000E3C6E1D0E3B6EF50E3B24ED
:10102000336E000E3C20346E3F503324356E4050FA
:101030003420366E35C01BF036C01CF01200245030
:10104000D96EDA6ADFCFF6FF0E0EF76E000EF86E7D
:101050000800F550250AD8A430EF08F032EF08F068
:10106000CCEF08F02450D96EDA6ADF2A000E516EF8
:10107000000E506E50C054F052685368000E2C6E33
:1010800068EF08F054822450D96EDA6ADF2A68EFDC
:1010900008F0010E2C6E68EF08F02450D96EDA6A61
:1010A000DFCFF6FF0E0EF76E000EF86E0800F5505B
:1010B000266E276A2750000AD8B461EF08F049EF7E
:1010C00008F02650300AD8B442EF08F049EF08F093
:1010D0002C50D8B46EEF08F070EF08F04DEF08F028
:1010E00024C00AF025C00BF092EC0BF00AC050F0BF
:1010F0000BC051F051BE81EF08F07FEF08F086EF92
:1011000008F05480506C511ED8B0512A2450D96E2A
:10111000DA6ADF502D6E2DC0F6FF0E0EF76E000E50
:10112000F86E0800F550640AD8B499EF08F09BEF08
:1011300008F0ABEF08F02DC0F6FF0E0EF76E000EB4
:10114000F86E0800F550690AD8A4A9EF08F0ABEFD3
:1011500008F0C6EF08F02550D96EDA6A020EDF26D5
:10116000DF5CD96EDA6ADECF28F0DECF29F02450BA
:10117000D96EDA6A2D28DF6E23C018F028C019F066
:1011800029C01AF0E0EC08F0DFEF08F02450D96E27
:10119000DA6ADF2ADFEF08F02450D96EDA6ADFCF8F
:1011A000F6FF0E0EF76E000EF86E0800F550046E96
:1011B000056A23C006F040EC0CF0C6EF08F0120000
:1011C000010E1D6E1ABEE7EF08F0EAEF08F0010EFF
:1011D000EBEF08F0000E206E50C01EF051C01FF063
:1011E0002050D8B4F6EF08F0F8EF08F00FEF09F050
:1011F0001E06D8A01F062050D8A401EF09F003EF67
:1012000009F009EF09F0000E1C6E2B0E1B6E0DEF9E
:1012100009F0000E1C6E2D0E1B6E1BC020F0000E80
:10122000226E1F0E216E000E0001AD6F45EF09F01A
:101230002106D8A0220621508E0FD96EDA6A19C075
:1012400004F01AC005F0000E076E0A0E066E3AECA6
:101250000BF004C00AF005C00BF048EC0FF00A5088
:10126000300FDF6E000E1D6E1E06D8A01F0619C0BF
:1012700004F01AC005F0000E076E0A0E066ED8ECD8
:101280000AF004C019F005C01AF022BE50EF09F0B0
:10129000225008E12104D8A050EF09F052EF09F0E4
:1012A00077EF09F019501A10D8A459EF09F05BEF45
:1012B00009F018EF09F01D50D8A461EF09F063EFB1
:1012C00009F018EF09F01FBE6EEF09F01F5008E19A
:1012D0001E04D8A06EEF09F070EF09F077EF09F067
:1012E00054B275EF09F077EF09F018EF09F02050CC
:1012F000D8B47DEF09F07FEF09F088EF09F02106FF
:10130000D8A0220621508E0FD96EDA6A20C0DFFFE6
:1013100018C011F021508E0F126E1EC013F01FC0A6
:1013200014F0DFEC0CF01200000E0001896F000ECB
:10133000886F000E8D6F010E8C6F070E8B6FE80E9D
:101340008A6F000E876F000E866FEDEC0FF08AC07B
:1013500016F08BC017F067EC0DF016C080F017C0C8
:1013600081F0AEC004F0AFC005F074EC0AF0010EDD
:1013700011EC0FF0600E456EAEC046F0AFC047F006
:101380008CC048F08DC049F08AC04AF08BC04BF049
:1013900080C04CF081C04DF095EC0CF0AEC041F037
:1013A000AFC042F08CC043F08DC044F08AC045F01D
:1013B0008BC046F0820E476E840E486E19EC0EF01C
:1013C0008CC004F08DC005F082C006F083C007F029
:1013D00084C008F085C009F0AE0E0A6E860E0B6E52
:1013E000E9EC0BF0AE0E046E8C0E056E8A0E066EE6
:1013F00080C007F081C008F0880E096E0EEC0AF07C
:10140000AE0E046E8CC005F08DC006F0880E076E1F
:10141000A4EC0DF0A7EF09F05EEF00F00450D96ED8
:10142000DA6A180EDE18DE10D8A419EF0AF01BEFE6
:101430000AF026EF0AF00450D96EDA6ADE6ADD6A35
:101440000550D96EDA6ADE2A000EDD220750081038
:10145000D8A42DEF0AF02FEF0AF04FEF0AF0055055
:10146000D96EDA6A6E0EDE5C010EDE58D8A03BEF54
:101470000AF03DEF0AF04FEF0AF00550D96EDA6A34
:10148000010EDE6E000EDD6E0650D96EDA6ADE2ABF
:10149000000EDD220950D96EDA6ADE6ADD6A0704C1
:1014A0000810D8A456EF0AF058EF0AF073EF0AF0CC
:1014B0000550D96EDA6A6F0EDE5C010EDE58D8A0D8
:1014C00064EF0AF066EF0AF073EF0AF00550D96E88
:1014D000DA6A010EDE6E000EDD6E0650D96EDA6A33
:1014E000DE2A000EDD22120004A079EF0AF07BEF65
:1014F0000AF07EEF0AF07F807FEF0AF07F9004A26F
:1015000084EF0AF086EF0AF089EF0AF07F828AEF13
:101510000AF07F9204A48FEF0AF091EF0AF094EFA3
:101520000AF0798495EF0AF0799404A69AEF0AF00C
:101530009CEF0AF09FEF0AF07E8CA0EF0AF07E9CF1
:1015400004A8A5EF0AF0A7EF0AF0AAEF0AF079883D
:10155000ABEF0AF0799804AAB0EF0AF0B2EF0AF004
:10156000B5EF0AF0798AB6EF0AF0799A04ACBBEFCE
:101570000AF0BDEF0AF0C0EF0AF07E80C1EF0AF07A
:101580007E9004AEC6EF0AF0C8EF0AF0CBEF0AF087
:101590007A80CCEF0AF07A9005A0D1EF0AF0D3EF71
:1015A0000AF0D6EF0AF07A82D7EF0AF07A921200A8
:1015B000000E096E07BEE1EF0AF0DFEF0AF0E7EF79
:1015C0000AF0066C071ED8B0072A010E096E05BE88
:1015D000EEEF0AF0ECEF0AF0F4EF0AF0046C051EEF
:1015E000D8B0052A010E091A000E0B6E000E0A6E05
:1015F00006500710D8B4FFEF0AF001EF0BF029EF07
:101600000BF0010E086E09EF0BF0D8900636073686
:10161000082A07AE0EEF0BF010EF0BF005EF0BF002
:10162000D8900A360B360650045C07500558D8A0EF
:101630001CEF0BF01EEF0BF023EF0BF00650045ED7
:101640000750055A0A80D89007320632082E10EF4C
:101650000BF00950D8B42FEF0BF031EF0BF035EF52
:101660000BF00A6C0B1ED8B00B2A0AC004F00BC09A
:1016700005F01200000E096E05BE43EF0BF041EFBE
:101680000BF049EF0BF0046C051ED8B0052A010ED3
:10169000096E07BE50EF0BF04EEF0BF054EF0BF05E
:1016A000066C071ED8B0072A06500710D8B45BEFA7
:1016B0000BF05DEF0BF081EF0BF0010E086E65EFA4
:1016C0000BF0D89006360736082A07AE6AEF0BF003
:1016D0006CEF0BF061EF0BF00650045C07500558FF
:1016E000D8A075EF0BF077EF0BF07BEF0BF0065007
:1016F000045E0750055AD89007320632082E6CEF68
:101700000BF00950D8B487EF0BF089EF0BF08DEF99
:101710000BF0046C051ED8B0052A04C004F005C007
:1017200005F01200000E0E6E000E0D6E0A50D96EFE
:10173000DA6ADFCFF6FF0E0EF76E000EF86E0800C5
:10174000F5502A0AD8A4A7EF0BF0A9EF0BF0CFEFC2
:101750000BF00A50D96EDA6ADF2A0B50D96EDA6ABA
:10176000020EDF26DF5CD96EDA6ADECF0DF0DECF47
:101770000EF0E4EF0BF00DC004F00EC005F0000E0B
:10178000076E0A0E066EA6EC0FF00C5004240D6EC8
:10179000000E05200E6E0A50D96EDA6ADF2A0A5052
:1017A000D96EDA6ADFCFF6FF0E0EF76E000EF86E16
:1017B0000800F550D00F0C6E090E0C64E2EF0BF030
:1017C000E4EF0BF0BBEF0BF00DC00AF00EC00BF016
:1017D00012000650041807E107500518D8A4F3EFCB
:1017E0000BF0F5EF0BF00DEF0CF00A50D96EDA6A42
:1017F000020EDE18DE10D8A400EF0CF002EF0CF0A1
:101800000DEF0CF00A50D96EDA6ADE2A000EDD22E6
:101810000B50D96EDA6ADE6ADD6A0850041807E1F7
:1018200009500518D8A417EF0CF019EF0CF03FEF92
:101830000CF00A50D96EDA6A020EDE18DE10D8A457
:1018400024EF0CF026EF0CF03FEF0CF00B50D96EAC
:10185000DA6ADE50DE10D8A430EF0CF032EF0CF074
:101860003FEF0CF00A50D96EDA6ADE06000EDD5A40
:101870000B50D96EDA6A010EDE6E000EDD6E1200BC
:101880000650D8B446EF0CF048EF0CF050EF0CF0D7
:101890000650D8A44EEF0CF050EF0CF055EF0CF0C2
:1018A000045018EC10F094EF0CF00650D96EDA6A80
:1018B0000A0ED926DE50DE10D8B461EF0CF063EFCB
:1018C0000CF07CEF0CF00650D96EDA6A0A0ED926BD
:1018D0000650E16EE26A030EE126DE50E65CE65059
:1018E000800A0B6EDE50800A0B58D8B07AEF0CF0ED
:1018F0007CEF0CF094EF0CF00650D96EDA6A030E10
:10190000D926DF50076E0650D96EDA6ADF500724F9
:10191000D96EDA6A04C0DFFF0650D96EDA6A030EA8
:10192000D926DE2A000EDD221200010E11EC0FF086
:1019300045C032F0010E336E46C034F047C035F07A
:1019400048C036F049C037F02EEC0FF045C009F022
:1019500062EC0FF0020E11EC0FF04C044D10D8A405
:10196000B4EF0CF0B6EF0CF0C6EF0CF045C032F05F
:101970001B0E336E4AC034F04BC035F02EEC0FF026
:1019800045C009F062EC0FF0D2EF0CF045C032F028
:101990000F0E336E4AC034F04BC035F02EEC0FF012
:1019A000C0EF0CF0110E4F6E3C0E4E6ECB0EE82EBB
:1019B000FED74E2EFCD74F2EFAD70000120054A0AF
:1019C000E4EF0CF0E6EF0CF0ECEF0CF012C00CF0D2
:1019D00011C00DF0D5EC0EF014BEF3EF0CF0F1EFEA
:1019E0000CF0F7EF0CF0000E146E000E136E000EEC
:1019F000176E000E166E07EF0DF0000E056E200E2E
:101A0000046E11C006F040EC0CF0164A172A135071
:101A1000165C1750800A156E1450800A1558D8A00D
:101A200014EF0DF016EF0DF0FDEF0CF054B01BEFBE
:101A30000DF01DEF0DF023EF0DF012C00CF011C0F2
:101A40000DF0D5EC0EF01200839C83948296829464
:101A5000859685927B9C7B947A987A9A7A9C7A9EDA
:101A6000030E4EEC0EF0D00EE82EFED7000E056EE3
:101A7000280EF3EC0EF0D00EE82EFED7000E056E09
:101A8000280EF3EC0EF0C50EE82EFED70000000E77
:101A9000056E0C0EF3EC0EF0C50EE82EFED700001E
:101AA000000E056E010EF3EC0EF0200E096ECA0E4C
:101AB000E82EFED7092EFCD7000E056E060EF3ECBD
:101AC0000EF0000E056E0F0EF3EC0EF01200010E7C
:101AD0001A6E030E1614186E000E1714196E185095
:101AE0001910D8A476EF0DF078EF0DF08BEF0DF014
:101AF00016C011F017C012F0000E146E640E136EB3
:101B000082EC0EF011501210D8A489EF0DF08BEF7B
:101B10000DF0A0EF0DF016C011F017C012F0010E7D
:101B2000146E900E136E82EC0EF011501210D8B499
:101B30009CEF0DF09EEF0DF0A0EF0DF0000E1A6E71
:101B40001AC016F0176A120080B6A9EF0DF0ABEFBD
:101B50000DF0DEEF0DF00B0E05180610D8A4B3EF54
:101B60000DF0B5EF0DF0DEEF0DF00450D96EDA6A2E
:101B7000010EDB5009E1060EDE5CD8A0C2EF0DF0CD
:101B8000C4EF0DF0DEEF0DF00750D96EDA6ADE50CB
:101B9000DE10D8A4CEEF0DF0D0EF0DF0DEEF0DF09B
:101BA0000450D96EDA6A080EDE6E000EDD6E075044
:101BB000D96EDA6A010EDE6E000EDD6E1200000EC6
:101BC0000F6E000E0E6E0C500D10D8B4EAEF0DF033
:101BD000ECEF0DF014EF0EF0010E106EF4EF0DF0BF
:101BE000D8900C360D36102A0DAEF9EF0DF0FBEF44
:101BF0000DF0F0EF0DF0D8900E360F360C500A5C59
:101C00000D500B58D8A007EF0EF009EF0EF00EEFB5
:101C10000EF00C500A5E0D500B5A0E80D8900D320B
:101C20000C32102EFBEF0DF00EC00AF00FC00BF0BF
:101C3000120043044410D8A420EF0EF022EF0EF05F
:101C40004DEF0EF041504210D8A429EF0EF02BEFCB
:101C50000EF04DEF0EF045C01BF046C01CF0000E1C
:101C60001E6E030E1D6E13EC07F04750D96EDA6A34
:101C70001BC0DEFF1CC0DDFF45C01BF046C01CF0D2
:101C8000000E1E6E0A0E1D6E13EC07F04850D96E42
:101C9000DA6A1BC0DEFF1CC0DDFF1200046E04A068
:101CA00054EF0EF056EF0EF059EF0EF07A865AEF21
:101CB0000EF07A9604A25FEF0EF061EF0EF064EF83
:101CC0000EF07A8465EF0EF07A9404A46AEF0EF0B9
:101CD0006CEF0EF06FEF0EF07D8670EF0EF07D96DC
:101CE00004A675EF0EF077EF0EF07AEF0EF07D821E
:101CF0007BEF0EF07D9211EC10F01A0EE82EFED75D
:101D000000D0120013501410D8B489EF0EF08BEFEE
:101D10000EF0AFEF0EF0010E156E93EF0EF0D890AF
:101D200013361436152A14AE98EF0EF09AEF0EF013
:101D30008FEF0EF01350115C14501258D8A0A3EF7F
:101D40000EF0A5EF0EF0A9EF0EF01350115E145037
:101D5000125AD89014321332152E9AEF0EF011C089
:101D600011F012C012F012002FC031F0C0EF0EF0CF
:101D70002EC023F0310E246E30C025F01FEC08F089
:101D800031C0F6FF0E0EF76E000EF86E0800F5502B
:101D90000009D8A4CEEF0EF0D0EF0EF0B8EF0EF0A1
:101DA000000E2F6E000E2E6E1200000E106E000E32
:101DB0000F6EE4EF0EF00EC004F0056A0DC006F0E1
:101DC00040EC0CF00F4A102A0C500F24D96EDA6A3E
:101DD000DF500E6E0E50D8A4F0EF0EF0F2EF0EF0C2
:101DE000DBEF0EF01200086E0504D8A4FAEF0EF037
:101DF000FCEF0EF0FFEF0EF07B8C00EF0FF07B9C02
:101E000008380F0B066E06504EEC0EF008500F0B04
:101E1000076E07504EEC0EF0A00E00D0E82EFDD756
:101E20001200096E0904D8A418EF0FF01AEF0FF092
:101E30001FEF0FF0000E056E800EF3EC0EF0020E99
:101E40000918D8A426EF0FF028EF0FF02DEF0FF0B0
:101E5000000E056EC00EF3EC0EF01200340E386E5C
:101E600032C039F0000E3D6E000E3C6E000E446E26
:101E7000000E436E390E2E6E33C02FF0380E306ECA
:101E8000B4EC0EF032503C24D96EDA6ADF6A1200EC
:101E90000BBE4DEF0FF04FEF0FF055EF0FF00AC0F4
:101EA0000AF00BC00BF061EF0FF00AC00CF00BC092
:101EB0000DF00C1E0D1E0C4A0D2A0CC00AF00DC0B0
:101EC0000BF012006DEF0FF0010E056E0950D96E88
:101ED000DA6ADF50F3EC0EF0092A0950D96EDA6A9B
:101EE000DF50D8A476EF0FF078EF0FF064EF0FF02B
:101EF0001200D6501F0B4009D66ED688D650F00B74
:101F00000809D66ED5880E01298B339B1F9BF28A58
:101F1000F28CF28E090ED46E830ED36ED58E120023
:101F2000000E796E000E7A6E7E907E9C000E7F6EA3
:101F30008086000E816E000E826E8690869C000E5A
:101F4000876E889686840E01B495120004500602AE
:101F5000F3CF08F0F4CF09F004500702F35009263C
:101F600005500602F350092608C004F009C005F028
:101F70001200868E0E01D251F80B0309D26FD35195
:101F8000F80B0509D36FD083D089D18307EC10F00B
:101F90000E01D08F1200868E0E01CE51F80B030970
:101FA000CE6FCF51F80B0509CF6FCC83CC89CD8193
:101FB00007EC10F00E01CC8F120000EE8EF0220E16
:101FC000EE6AE806FDE1546A536A526A516A506A41
:101FD00055905592000194EF09F0FAEC0FF0B9EC2E
:101FE0000FF0CBEC0FF079EC0FF090EC0FF024EC4D
:101FF0000DF012000E012B8121912B8321932B8553
:102000002185298B1F9BF28AF28CF28E1200F30E2F
:102010000E01C617C691C751E00B1409C76FC68FD2
:1020200012007B840A0EE82EFED700D07B941200AB
:0220300012009C
:020000040030CA
:02000000AAFF55
:020004009FFF5C
:00000001FF
